:020000040800F2
:100000001809002005010008D90C0008AD050008FA
:10001000710B000815030008BB1900080000000060
:100020000000000000000000000000002D13000888
:10003000E10300080000000059110008B114000895
:100040001F0100081F0100081F0100081F01000810
:100050001F0100081F0100081F0100081F01000800
:100060001F0100081F0100081F0100081F010008F0
:100070001F0100081F0100081F0100081F010008E0
:100080001F0100081F0100081F0100081F010008D0
:100090001F0100081F0100081F0100081F010008C0
:1000A0001F0100081F0100081F0100081F010008B0
:1000B0001F0100081F0100081F0100081F010008A0
:1000C0001F0100081F0100081F0100081F01000890
:1000D0001F010008D51800081F0100081F010008B3
:1000E0001F0100081F0100081F010008DFF810D0E1
:1000F00000F0E2F8004800478D1F0008AFF30080D1
:10010000180900200648804706480047FEE7FEE73A
:10011000FEE7FEE7FEE7FEE7FEE7FEE7FEE7FEE7B7
:10012000F1140008ED00000838B5D0E90221491E9D
:1001300001EB410102EBC1014268C1EB011102EB8D
:1001400081010268C1EB011102EB8102D0E90431A7
:1001500001EB410103EB81013023A1F5527191FBC9
:10016000F3F4174D6C4302EBC41291FBF3F403FB61
:10017000141100921A2902DB124B1A4400920C222D
:1001800091FBF2F3104C6343009C04EBC313009308
:1001900091FBF2F302FB13110C4A08E0491E40F2F6
:1001A000A324535C6343009C04EBC3130093002916
:1001B000F4DC0146684600F039F8009838BD0000CC
:1001C0003F0C0F008051010067C20300A03B0008F4
:1001D00040EA01039B0703D009E008C9121F08C0C9
:1001E000042AFAD203E011F8013B00F8013B521E49
:1001F000F9D2704730B50B46014600202022012479
:1002000009E021FA02F59D4205D303FA02F5491BE4
:1002100004FA02F52844151EA2F10102F1DC30BDFA
:10022000014900F003B80000EC04002010B500689C
:100230003C22B0FBF2F302FB1303B0FBF2F00B60C5
:10024000B0FBF2F302FB1303B0FBF2F018224B6099
:10025000B0FBF2F302FB1303B0FBF2F0021D8B6064
:100260000723B2FBF3F403FB1422800040F2B553E2
:1002700000F66C308A61B0FBF3F2B0FBF3F403FBE1
:100280001400443280084A61C8613B2802D39207B7
:1002900000D0401C0022074C13460A61E25C8242F7
:1002A00003D8801A5B1C0B61F8E7401CC860084645
:1002B00010BD0000AC3B0008064C074D06E0E068AE
:1002C00040F0010394E8070098471034AC42F6D39D
:1002D000FFF710FFE83B0008083C000808B501469E
:1002E0000020009003480090009808440090009877
:1002F000008808BD006C004008B500220092044A46
:100300000092009A02440092009A116008BD000019
:10031000006C004000BFFEE700B589B00121082055
:1003200000F02CFF0121022000F018FF0120ADF8A1
:10033000200018208DF8230003208DF8220008A942
:10034000134800F09BF84720ADF8140040F2E73066
:10035000ADF818000020ADF81A00ADF8160005A998
:100360000C4801F051F96020ADF804000120ADF80F
:1003700006004FF4FA70ADF80A0001A9054801F033
:10038000F3F80121034801F0E3F809B000BD0000D3
:10039000000C01400004004070B5044600250DE04B
:1003A00000F016F84FF4FA7000F01CF800F00AF8AC
:1003B0004FF4FA7000F016F8681CC5B2A542EFDBE6
:1003C00070BD000000200149088070473C040040D7
:1003D0004FF4617001490880704700003C04004000
:1003E000704700000146114A12884A434FF0E0234B
:1003F0005A6100229A611A46126942F001021A619A
:1004000000BF4FF0E022106900F001021AB100F4C1
:100410008032002AF5D04FF0E022126922F001026A
:100420004FF0E0231A6100229A6170470200002019
:100430000146114A12784A434FF0E0235A610022E4
:100440009A611A46126942F001021A6100BF4FF028
:10045000E022106900F001021AB100F48032002A93
:10046000F5D04FF0E022126922F001024FF0E023B4
:100470001A6100229A617047000000202DE9F041C6
:10048000024600250026002000230024002791F8C2
:1004900003C00CF00F0591F803C00CF0100CBCF178
:1004A000000F03D091F802C04CEA050591F800C096
:1004B000BCF1000F31D0146800202BE04FF0010C8C
:1004C0000CFA00F3B1F800C00CEA03069E4220D1FA
:1004D00083004FF00F0C0CFA03F7BC4305FA03FC42
:1004E0004CEA040491F803C0BCF1280F06D14FF088
:1004F000010C0CFA00FCC2F814C00AE091F803C029
:10050000BCF1480F05D14FF0010C0CFA00FCC2F809
:1005100010C0401C0828D1D31460B1F800C0BCF151
:10052000FF0F34DD546800202EE000F1080C4FF07E
:10053000010808FA0CF3B1F800C00CEA03069E4269
:1005400021D183004FF00F0C0CFA03F7BC4305FADE
:1005500003FC4CEA040491F803C0BCF1280F05D158
:1005600000F1080C08FA0CF8C2F8148091F803C0E6
:10057000BCF1480F07D100F1080C4FF0010808FA50
:100580000CF8C2F81080401C0828CED35460BDE897
:10059000F0810246002093680B400BB1012000E07F
:1005A00000207047416170470161704700BFFEE75E
:1005B00008B50121082000F0E1FD4020ADF8000061
:1005C00003208DF8020010208DF8030069460848CA
:1005D000FFF754FF8020ADF8000069460448FFF79C
:1005E0004DFF0120034908600349C1F89C0108BD83
:1005F000000C0140988121420080214270B50446E0
:1006000000F082FE002014490860002520E004F07C
:100610008000002804DD01200F49091D086003E067
:1006200000200D49091D08606006040E0220FFF736
:10063000FFFE0120084908600220FFF7F9FE0020B4
:100640000649C1F898010220FFF7F2FE681CC5B206
:10065000082DDCDB70BD0000988121420080214222
:1006600010B500F051FE0120094908600949C1F8A0
:1006700098010520FFF7DCFE0020054908600620F0
:10068000FFF7D6FE00200349C1F8980110BD000015
:100690009C8121420080214210B500F035FE0020EF
:1006A000094908600949C1F89C0101200649086010
:1006B0000620FFF7BDFE01200449C1F89C01062079
:1006C000FFF7B6FE10BD0000988121420080214254
:1006D00010B5002401200F490860FFF7A9FE00F0C3
:1006E00005FE01200C49C1F89801FFF7A1FE07E0C3
:1006F000601CC4B2FA2C03DDFFF7CEFF012010BD51
:100700000448803800680028F2D10249091F0860B7
:1007100000BFF4E79C8121420080214208B50121FD
:10072000082000F02BFD0121082000F027FD012109
:10073000082000F023FD0121082000F01FFD012109
:10074000082000F01BFD0121082000F017FD012109
:10075000082000F013FD0121082000F00FFD1020FB
:100760008DF8030003208DF802004FF48070ADF87F
:10077000000069461F48FFF781FE4FF40070ADF896
:10078000000069461B48FFF779FE4FF48060ADF822
:10079000000069461748FFF771FE4FF40060ADF89E
:1007A000000069461348FFF769FE28208DF8030012
:1007B0004FF48050ADF8000069460E48FFF75EFE2A
:1007C0004FF40050ADF8000069460A48FFF756FEA6
:1007D0004FF48040ADF8000069460648FFF74EFE32
:1007E0004FF40040ADF8000069460248FFF746FEAE
:1007F00008BD0000000C01402DE9F0474FF0000853
:100800004FF48071D948FFF7CFFE4FF40071D748FD
:10081000FFF7CAFE4FF48061D448FFF7C5FE4FF4DE
:100820000061D248FFF7C0FE4FF48051CF48FFF778
:10083000B0FE81464FF40051CC48FFF7AAFE49EACA
:1008400000094FF48041C948FFF7A3FE49EA0009B7
:100850004FF40041C548FFF79CFE49EA0009B9F191
:10086000000F02D10020BDE8F0870520FFF7BAFD98
:100870004FF48051BD48FFF78CFE81464FF4005184
:10088000BA48FFF786FE49EA00094FF48041B748AD
:10089000FFF77FFE49EA00094FF40041B348FFF734
:1008A00078FE49EA0009B9F1000F01D10020DAE72A
:1008B0004FF48071AD48FFF777FE4FF40071AB48FD
:1008C000FFF770FE4FF48061A848FFF76BFE4FF40E
:1008D0000061A648FFF766FE4FF48051A348FFF77A
:1008E00058FE05464FF40051A048FFF752FE064659
:1008F0004FF480419D48FFF74CFE07464FF40041FE
:100900009A48FFF746FE04460DB14FF001080EB1BC
:100910004FF002080FB14FF003080CB14FF004087C
:1009200000BF4FF480519148FFF733FE81464FF4EA
:1009300000518E48FFF72DFE49EA00094FF480412F
:100940008A48FFF726FE49EA00094FF4004187482C
:10095000FFF71FFE49EA0009B9F1000FE1DC4FF48F
:1009600080718248FFF71EFE4FF400717F48FFF749
:100970001BFE4FF480617D48FFF714FE4FF40061C9
:100980007A48FFF70FFE4FF480517848FFF701FED9
:1009900005464FF400517548FFF7FBFD06464FF43E
:1009A00080417248FFF7F5FD07464FF400416F485C
:1009B000FFF7EFFD04460DB14FF005080EB14FF003
:1009C00006080FB14FF007080CB14FF0080800BF40
:1009D0004FF480516548FFF7DCFD81464FF400512C
:1009E0006248FFF7D6FD49EA00094FF480415F48AD
:1009F000FFF7CFFD49EA00094FF400415B48FFF7DC
:100A0000C8FD49EA0009B9F1000FE1DC4FF480713B
:100A10005648FFF7C7FD4FF400715448FFF7C2FD79
:100A20004FF480615148FFF7BFFD4FF400614F481C
:100A3000FFF7B8FD4FF480514C48FFF7AAFD05467B
:100A40004FF400514948FFF7A4FD06464FF480419A
:100A50004648FFF79EFD07464FF400414348FFF725
:100A600098FD04460DB14FF009080EB14FF00A0889
:100A70000FB14FF00B080CB14FF00C0800BF4FF452
:100A800080513A48FFF785FD81464FF400513748C1
:100A9000FFF77FFD49EA00094FF480413348FFF733
:100AA00078FD49EA00094FF400413048FFF771FD35
:100AB00049EA0009B9F1000FE1DC4FF480712B48DD
:100AC000FFF770FD4FF400712848FFF76BFD4FF4FE
:100AD00080612648FFF766FD4FF400612348FFF769
:100AE00063FD4FF480512148FFF753FD05464FF455
:100AF00000511E48FFF74DFD06464FF480411B484C
:100B0000FFF747FD07464FF400411848FFF741FD46
:100B100004460DB14FF00D080EB14FF00E080FB1A5
:100B20004FF00F080CB14FF0100800BF4FF4805188
:100B30000E48FFF72EFD81464FF400510B48FFF79A
:100B400028FD49EA00094FF480410848FFF721FDDC
:100B500049EA00094FF400410448FFF71AFD49EA49
:100B60000009B9F1000FE1DC40467CE6000C0140D1
:100B700000BFFEE72DE9F84305460C461646204621
:100B800000F013F98046A8F10100C0064FEA106991
:100B9000681E0007070E96B10120009007F10F00B4
:100BA000C3B27F223946002000F0E4F80020102371
:100BB000224639460090484600F075FA07E00120C9
:100BC0001023224639460090484600F06CFABDE8F2
:100BD000F88310B50121080700F0C0FA0121C8060A
:100BE00000F0BCFA012000F0B1FA0420FFF776FB18
:100BF0004AF2A551884220D0012000F0EDFA00BF52
:100C0000412000F0CBFA0128FAD1000200F004FBE9
:100C1000012000F0FBFA00F057FB00F04BFB47F619
:100C2000FF7000F037FB00F045FB00F02FF84AF2B0
:100C3000A5510420FFF760FB03E000F045FB00F046
:100C400039FB10BD10B58CB000F00CFB00F5E14095
:100C50000B900BA8FFF7E4FA04462C2221466846C5
:100C6000FFF7B6FA059800F26C70074908800498FF
:100C7000401C4880039888800298C88001980881A9
:100C8000009848810CB010BD0600002010B58CB053
:100C900010480088A0F26C7006900E484088401EF4
:100CA00005900C48808804900A48C0880390094841
:100CB0000089029007484089019001A8FFF734FAA3
:100CC000A0F5E144204600F0D7FA00F0F3FA0CB0AA
:100CD00010BD0000060000207047000070B5002421
:100CE0000CE0002506E00020074901EBC50108558E
:100CF000681CC5B2802DF6DB601CC4B2082CF0DB8A
:100D000000F0F8F870BD000024000020F0B5144693
:100D100000267F2801DC3F2900DDF0BD0B46CF1700
:100D200001EB5777FF10C7F10707FAB2CF1701EBB6
:100D30005777FF10A1EBC707FDB2C5F107070123E5
:100D4000BB40DEB24CB10A4B03EBC0039B5C3343A8
:100D5000074F07EBC007BB5408E0054B03EBC0038C
:100D60009B5CB343024F07EBC007BB5400BFD4E703
:100D7000240000202DE9F04706460F46904699468C
:100D8000DDF820A034460CE03D4606E052462946F8
:100D90002046FFF7BBFF681CC5B24D45F6DD601C61
:100DA000C4B24445F0DDBDE8F08710B5034600212C
:100DB0001A4602E0481CC1B2521C1078202802DBFF
:100DC00010787E28F6DD102901DB012010BDC1F16D
:100DD000100404EBD4704010401CC0B2F6E7F0B52C
:100DE00004460025224602E0681CC5B2521C107859
:100DF000202802DB10787E28F6DD084601EBD0774C
:100E0000C7F3470605FB06F3802B01DB0020F0BD8E
:100E1000C3F1800707EBD770C0F34700F7E710B5C1
:100E2000FFF7C6FB0021AE2000F083F90021D5209A
:100E300000F07FF90021502000F07BF90021A8206C
:100E400000F077F900213F2000F073F90021D32052
:100E500000F06FF90021084600F06BF900214020F6
:100E600000F067F900218D2000F063F900211420C3
:100E700000F05FF90021202000F05BF90021022042
:100E800000F057F90021A12000F053F90021C02003
:100E900000F04FF90021DA2000F04BF90021122078
:100EA00000F047F90021812000F043F90021EF20F4
:100EB00000F03FF90021D92000F03BF90021F1209A
:100EC00000F037F90021DB2000F033F90021302059
:100ED00000F02FF90021A42000F02BF90021A6201A
:100EE00000F027F90021AF2000F023F9FFF7F6FE0C
:100EF00010BD000070B507241AE004F1B001C8B2BB
:100F0000002100F016F90021084600F012F9002136
:100F1000102000F00EF9002507E0074901EBC5019C
:100F2000085D012100F005F96D1C802DF5DB641EC4
:100F3000002CE2DA70BD0000240000202DE9F84FFB
:100F400080460F4616461C46BA462046E31704EB79
:100F50005373DB1021464FEAE47C04EB5C7C4FEAE0
:100F6000EC0CA4EBCC0CBCF1000F02D04FF0010C48
:100F700001E04FF0000C6344224604EBD27C4FEAC0
:100F80006C0C03FB0CF303F0FF0BA6F12000C6B2C0
:100F900000254EE00C2C07D106EB4600274901EB5B
:100FA0008000405D009013E0102C05D1244800EB38
:100FB0000610405D00900BE0182C07D106EBC60030
:100FC000204901EB8000405D009001E0BDE8F88F12
:100FD0004FF0000927E0009800F0800028B1394662
:100FE00040460A9AFFF792FE09E00A9808B90120E4
:100FF00000E00020024639464046FFF787FE009891
:101000004006000E0090781CC7B2A7EB0A00A04271
:1010100005D1574608F1010000F0FF0806E009F18C
:10102000010000F0FF09B9F1080FD4DB00BF681C14
:10103000C5B25D45AEDB00BFC8E70000482100082F
:10104000BC250008AC2B0008F8B506460F4615462F
:101050001C4621E004EBD4714910C1F18001B1427A
:1010600002DA00263819C7B2C4F14000B84204DAE7
:10107000002006460746FFF731FE012000902A783F
:10108000234639463046FFF759FF204604EBD0711E
:1010900006EB6101CEB26D1C28787E2802DC287830
:1010A0002028D7DAF8BD2DE9F84306460F46154645
:1010B0001C46DDF8208021E004EBD4714910C1F119
:1010C0008001B14202DA00263819C7B2C4F14000EB
:1010D000B84204DA002006460746FFF7FFFDCDF8C8
:1010E00000802A78234639463046FFF727FF2046FE
:1010F00004EBD07106EB6101CEB26D1C28787E281E
:1011000002DC28782028D7DABDE8F8837CB50446CD
:101110000D4616466B4601AA2946204600F084F883
:10112000102332469DF800109DF80400FFF78CFF55
:101130007CBD70B505460C461CB1284600F0EEFF9C
:1011400002E0284600F0D4FF70BD000001490862AB
:101150007047000000000E427047000029B1064AA7
:10116000D2690243044BDA6104E0034AD269824344
:10117000014BDA61704700000010024029B1064AB5
:1011800092690243044B9A6104E0034A92698243E4
:10119000014B9A61704700000010024010B50146F3
:1011A0000022002300204A11012A02D1094C2368A1
:1011B00006E0022A02D1074C236A01E0054C636A6B
:1011C00001F01F02012494401C400CB1012000E0FA
:1011D000002010BD0010024000210B4A11700A4A85
:1011E000203A82F82010012802D0042808D103E018
:1011F0000121054A117004E00521034A117000E045
:1012000000BF00BF70470000201002400149086085
:10121000704700003C0442420249096A0143014A06
:10122000116270470010024010B54C1EE406240EF7
:101230001470441E2407240E1C7010BD034800883F
:1012400040F0100001490880704700000428004069
:10125000034800884FF6EF71084001490880704745
:1012600004280040002103480188001F008841EA4B
:10127000004070471C28004000B50246FFF7DEFF23
:10128000100C03490880091D0A80FFF7E1FF00BD2B
:101290001828004000B50246FFF7D0FFC2F3034014
:1012A00003490880091D0A80FFF7D2FF00BD000036
:1012B0000828004000BF0348008800F020000028F4
:1012C000F9D0704704280040074800884FF6F771AE
:1012D00008400549088000BF0348008800F0080066
:1012E0000028F9D0704700000428004008B580208D
:1012F000ADF8000048208DF8030069460148FFF76B
:10130000BDF808BD000C014008B58020ADF8000014
:1013100003208DF8020010208DF803006946024872
:10132000FFF7ACF808BD0000000C0140704710B595
:1013300000F002F810BD00000CB5002001900090F4
:101340003348006840F480303149086000BF3048BD
:10135000006800F4003000900198401C0190009853
:1013600018B90198B0F5A06FF1D12948006800F4D0
:10137000003010B10120009001E0002000900098A2
:10138000012843D12348006840F01000214908603B
:101390000846006820F0030008600846006840F036
:1013A000020008601A4840681949486008464068C9
:1013B00048600846406840F48060486008464068DD
:1013C00020F47C1048600846406840F4E81048600B
:1013D0000846006840F08070086000BF0C48006854
:1013E00000F000700028F9D00948406820F00300A0
:1013F000074948600846406840F00200486000BF66
:101400000348406800F00C000828F9D10CBD00002A
:101410000010024000200240704710B5482000F044
:1014200049F8FFF7FCFCFFF779F9FEF775FFFFF7C6
:10143000D0FB0220FEF7B0FFC820FEF7D3FF10BD9F
:1014400000201049087000F033FE40F2DC50FEF737
:10145000C9FFFFF743FC01200A49087000F0A0FD16
:101460000FE0FFF7C9F9044614B1204600F01EF959
:1014700004480078012801D100F092FD3220FEF7E7
:10148000B1FFEEE712000020042808D14FF0E02160
:10149000096941F004014FF0E022116107E04FF0CB
:1014A000E021096921F004014FF0E0221161704749
:1014B0007047000010B504466FF00400FFF7E4FF2A
:1014C000E11704EB5171C1F3C701074A11701046CF
:1014D000007800EB4001C1EBC0104FF6FF7101EA4C
:1014E000C0000249088010BD00000020020000205A
:1014F00010B51348006840F0010011490860084623
:101500004068104908400E494860084600680E4986
:1015100008400B4908600846006820F480200860F5
:101520000846406820F4FE0048604FF41F008860C1
:10153000FFF7FDFE4FF000600449086010BD000099
:10154000001002400000FFF8FFFFF6FE08ED00E08B
:1015500021B1028842F00102028004E002884FF6C5
:10156000FE731A400280704770B5002400220023E9
:10157000058C4FF6FF6635400584028C8388848B8A
:101580004FF68F752C404FF6FC752C400D882C4380
:101590004FF6FF552A400D894FF6FF7606EA0525DE
:1015A0002A434D8806EA05252A43154DA84202D054
:1015B000144DA8421DD14FF2FF752A404D894FF6B8
:1015C000FF7606EA05252A434FF6FF352A408D8827
:1015D00006EA05252A434EF6FF752B404DF6FF75AA
:1015E0002B408D8906EA05152B43CD8906EA0515A2
:1015F0002B4383808483CD888587028470BD00005F
:10160000002C014000340140002202881D4B98420A
:101610000ED01D4B98420BD0B0F1804F08D01B4B21
:10162000984205D01A4B984202D01A4B984204D1E6
:101630004FF68F731A404B881A43174B984207D0C6
:10164000164B984204D04FF6FF431A40CB881A43FA
:1016500002808B8883850B8803850A4B98420BD0C8
:10166000094B984208D00E4B984205D00D4B98423A
:1016700002D00D4B984201D10B7A0386012383825D
:1016800070470000002C014000340140000400407D
:1016900000080040000C0040001000400014004012
:1016A00000400140004401400048014070B504463C
:1016B00083480078082876D2DFE800F0FF040F5A4C
:1016C00093FCFDFE042C07D102207D490870002008
:1016D0007C49087000F0B8FCF0E00D2C0ED1794880
:1016E000007818B902207749087004E0754800783E
:1016F000401E7449087000F0A7FC38E00F2C0FD191
:1017000070480078022803D100206E49087004E078
:101710006C480078401C6B49087000F095FC26E08E
:10172000042C01D0082C1BD16648007840B9032056
:101730006349087000206449087000F00BFB16E054
:1017400060480078012803D105205D4908700EE04B
:101750005C48007802280AD106205949087006E042
:101760000C2C04D101205649087000F019FCA5E0AA
:101770000D2C0ED15448007818B902205249087037
:1017800004E051480078401E4F49087000F0E2FA2A
:1017900026E00F2C10D14C480078022804D10020FC
:1017A0004949087005E088E047480078401C4649F0
:1017B000087000F0CFFA13E0042C01D0082C08D1F7
:1017C00004203F49087000204049087000F02CFBBD
:1017D00006E00C2C04D102203949087000F034FCDA
:1017E0006CE03948007802281AD10D2C05D00F2C56
:1017F00003D0042C01D0082C0AD13548C07A08B98E
:10180000012100E000213248C17200F00DFB06E02A
:101810000C2C04D103202A49087000F09BFA4DE0FB
:101820000D2C0ED12948007818B9022027490870DC
:1018300004E026480078401E2449087000F0F4FABD
:1018400037E00F2C0FD121480078022803D1002067
:101850001E49087004E01D480078401C1B490870B0
:1018600000F0E2FA25E0042C01D0082C1AD1184827
:101870001549097800EB81051448007820B101284A
:1018800005D0022807D105E00120E87003E0002020
:10189000E87000E000BF00BF00F0C6FA09E00BE00E
:1018A00009E007E00C2C04D103200549087000F082
:1018B00051FA03E002E000BF00E000BF00BF70BDCE
:1018C000120000201300002014000020150000204A
:1018D0001600002010B540F225511D4800F03EF8DA
:1018E00010B31B4800F064F8C4B21A48008800F432
:1018F0000040C8B91748008800F4804060B10A2C45
:1019000003D000201349088020E01248008840F4EA
:1019100000401049088019E00D2C06D10D480088C0
:1019200040F480400B49088010E00A480088C0F36A
:101930000D0009490C5407480088401C05490880DF
:1019400008460088C72801DD0020088010BD00007F
:1019500000380140040000202404002070B5024635
:10196000002400230025002040F66A16B14200D171
:1019700000BFC1F3421501F01F03012606FA03F36D
:10198000012D02D19689334006E0022D02D1168A3C
:10199000334001E0968A33400C12012606FA04F423
:1019A0001688344013B10CB1012000E0002070BD56
:1019B00001468888C0F30800704700BFFEE70000BA
:1019C0000FB4084B10B504A902AA039800F01CF844
:1019D000044602A9002000F0B8F9204610BC5DF8CA
:1019E00014FB00004B1D000802E008C8121F08C1CC
:1019F000002AFAD170477047002001E001C1121F90
:101A0000002AFBD1704700002DE9FF4F8BB08846BC
:101A10000546002606E025280BD0DDE90D1290478B
:101A20006D1C761C28780028F5D10FB03046BDE833
:101A3000F08F0024A146A2460122AE4900E00443F3
:101A400015F8013F203B02FA03F00842F7D128784D
:101A50002A2810D06FF02F022878A0F13001092930
:101A600015D809EB890102EB410144F0020400EBB7
:101A700001096D1CF0E758F8041B5FEA010903D562
:101A800044F40054C9F1000944F002046D1C2878A4
:101A90002E2817D115F8010F44F004042A280ED07F
:101AA0006FF02F022878A0F1300109290AD80AEB3B
:101AB0008A0102EB410100EB010A6D1CF2E758F8C4
:101AC00004AB6D1C28786C280FD006DC4C2817D08E
:101AD00068280DD06A2814D104E0742810D07A2820
:101AE0000FD10DE044F400140AE044F4801401E046
:101AF00044F440146978814202D104F580146D1CCD
:101B00006D1C2878692865D006DC00288DD06328F4
:101B100027D0642806D15DE06E2808D073282AD02B
:101B2000752877D0DDE90D129047761CE0E0C4F30C
:101B30000250022809D003280DD0D8F8001004283C
:101B40000DD00E6008F10408D2E0D8F80010F217AA
:101B5000C1E90062F6E7D8F800100E80F2E70E70D7
:101B6000F0E718F8041B8DF8001000208DF8010034
:101B7000EB46012003E058F804BB4FF0FF3061074B
:101B80004FF0000701D40AE07F1C57450DDA874269
:101B9000FADB1BF807100029F6D106E07F1C87420C
:101BA000FCDB1BF807100029F8D1DDE90D23A9EBB8
:101BB00007008146214600F0B1F83044C61904E020
:101BC000DDE90D121BF8010B90477F1EF8D221466C
:101BD000484688E058F8040BC4F302514FF00A0B52
:101BE000032900D100B2042900D140B2002802DA52
:101BF00040422D2102E0210505D52B218DF824102E
:101C0000012104E006E0E10710D02021F6E708AF4B
:101C1000089113E058F8040BC4F302514FF00A0B7B
:101C2000032900D180B2042900D1C0B20021EEE71F
:101C30005946FEF7DFFA303107F8011D0028F7D1C9
:101C4000ADEB070000F1200B600702D524F48034CF
:101C500001E04FF0010ADA4502DDAAEB0B0000E0DB
:101C60000020824600EB0B0108980144A9EB01001B
:101C70000A90E00306D4DDE90D2321460A9800F01E
:101C80004DF806444FF0000908E009A911F80900D1
:101C9000DDE90D12904709F10109761C0899894583
:101CA000F3DBE0030CD5DDE90D2321460A9800F0B3
:101CB00035F8064404E0DDE90D1230209047761C2B
:101CC000BAF10001AAF1010AF5DC05E0DDE90D1227
:101CD00017F8010B9047761CBBF10001ABF1010B2B
:101CE000F4DC0A982146DDE90D2300F005F80644EE
:101CF0006D1C97E6092801002DE9F04104460025F6
:101D00001E461746880404D405E039462020B04713
:101D10006D1C641EF9D52846BDE8F0812DE9F0411F
:101D2000044600251E469046C80301D5302700E032
:101D30002027880404D505E041463846B0476D1C8D
:101D4000641EF9D52846BDE8F0810A68531C0B6073
:101D500010707047F0B587B0FEF7C0FF22A0FFF704
:101D600024F8074620A239460120FFF7CFF90024C6
:101D700033E0A01CC5B21E480078844201D1012086
:101D800000E000200646022C16DA1A4800EB840018
:101D9000C07808B118A100E018A1164800EB840033
:101DA0004078CDE90001134810F82430621C14A1DA
:101DB00002A8FFF705FE09E00E48807A00900D4862
:101DC000437A027A13A102A8FFF7FAFD324602A96C
:101DD0002846FEF7CFFE601CC4B2032CC9DBFFF718
:101DE00089F807B0F0BD0000436C6F636B00000022
:101DF00014000020160000204F6E00004F666600A1
:101E000043256420253032643A253032642025731E
:101E1000000000004E657720253032643A253032CC
:101E2000643A2530326400002DE9F0418AB0FEF7B3
:101E300055FF43480078022830D142A0FEF7B5FF95
:101E4000804640A241460120FFF760F94048807A71
:101E500000903F48437A027A3EA105A8FFF7B0FD03
:101E600005A8FEF7A2FF804605AA41460220FFF71B
:101E70004DF93748C07A08B13AA000E03BA00446CB
:101E80002046FEF792FF8046224641460320FFF798
:101E90003DF9FFF72FF80AB0BDE8F0812848007837
:101EA00008B934A000E035A005462846FEF77DFFBE
:101EB00080462A4641460120FFF728F92448204958
:101EC000097800EB81008078009021481C4909784E
:101ED00000EB810043781E481949097810F8212049
:101EE0001CA105A8FFF76CFD05A8FEF75EFF804664
:101EF00005AA41460220FFF709F9224A07CA02ABA8
:101F000007C3002415E0E01CC6B2042E00DD12E079
:101F10001D480078844201D1012000E000200746DE
:101F200002A850F824103A463046FEF723FE601C03
:101F3000C4B2032CE7DB00BFFEF7DCFF00BFAAE75B
:101F4000140000204E6577436C6F636B0000000047
:101F500016000020253032643A253032643A2530AC
:101F6000326400004F70656E00000000436C6F73B8
:101F700065000000436C6F636B310000436C6F635E
:101F80006B320000943B00081500002010B5FFF7ED
:101F900044FAFFF741FAFFF753FA002010BD0000A2
:101FA00030B587B0FEF74EFE1AA0FEF7FEFE0446DF
:101FB00018A221460120FFF7A9F81A48408900908D
:101FC00018480389C28818A102A8FFF7F9FC182154
:101FD00002A8FEF704FF0546182302AA102128468E
:101FE000FFF732F80F48808800900E484388028837
:101FF00011A102A8FFF7E4FC02A8FEF7D6FE0446F2
:1020000002AA21460420FFF781F8FEF773FF07B00C
:1020100030BD00004265696A696E675265616C5443
:10202000696D650006000020253032643A253032A3
:10203000643A253032640000253034642D25303276
:10204000642D253032640000FEB5FEF747FE14A073
:10205000FEF7ABFE074612A239460120FFF756F8FD
:10206000114AD2E900109268CDE9010200910024E2
:1020700011E0A01CC5B20D480078844201D10120B6
:1020800000E0002006465DF8241032462846FEF7A0
:1020900071FD601CC4B2032CEBDBFEF72BFFFEBD11
:1020A0004D656E7500000000883B0008130000209D
:1020B00010B5FEF713FE0AA0FEF777FE044608A24D
:1020C00021460220FFF722F807A0FEF76EFE044625
:1020D00005A221460320FFF719F8FEF70BFF10BDFC
:1020E00057454C434F4D4500434C4F434B00000078
:1020F00010B50446FEF7B4FA7820FEF77FFAFEF733
:10210000E7FA0020FEF77AFAFEF7E2FA2046FEF739
:1021100075FAFEF7DDFAFEF7BFFA10BD10B50446FA
:10212000FEF79EFA7820FEF769FAFEF7D1FA402012
:10213000FEF764FAFEF7CCFA2046FEF75FFAFEF7E8
:10214000C7FAFEF7A9FA10BD000000000000000069
:1021500000000000000000003F4000000000000000
:1021600000003000400030004000000009000BC0BB
:102170003D000BC03D00090018C024407FE0224014
:1021800031800000180024C01B000D803240018007
:1021900003801C4027401C80074000401000600066
:1021A00000000000000000000000000000001F8090
:1021B000204040200000402020401F800000000000
:1021C000090006001F80060009000000040004004A
:1021D0003F800400040000000010006000000000C8
:1021E00000000000040004000400040004000000DB
:1021F000000000400000000000000000002001C0BE
:1022000006003800400000001F8020402040204091
:102210001F800000000010403FC000400000000090
:1022200018C0214022402440184000001080204067
:10223000244024401B80000002000D0011003FC01C
:10224000014000003C8024402440244023800000C2
:102250001F802440244034400380000030002000D0
:1022600027C03800200000001B8024402440244068
:102270001B8000001C0022C0224022401F80000062
:102280000000000008400000000000000000000006
:102290000460000000000000000004000A001100BB
:1022A00020804040090009000900090009000000E1
:1022B00000004040208011000A00040018002000A7
:1022C00023402400180000001F80204027402940A0
:1022D0001F400000004007C039000F0001C000404F
:1022E00020403FC0244024401B8000001F8020402D
:1022F000204020403080000020403FC0204020404F
:102300001F80000020403FC024402E4030C000000D
:1023100020403FC024402E00300000000F001080FD
:10232000204022403380020020403FC004000400CF
:102330003FC02040204020403FC0204020400000BF
:102340000060202020203FC02000200020403FC00F
:1023500024400B0030C0204020403FC020400040BF
:10236000004000C03FC03C0003C03C003FC0000034
:1023700020403FC00C4023003FC020001F80204071
:10238000204020401F80000020403FC02440240007
:10239000180000001F802140214020E01FA0000005
:1023A00020403FC02440260019C0004018C02440EF
:1023B0002440224031800000300020403FC02040B7
:1023C0003000000020003F80004000403F8020009F
:1023D00020003E0001C0070038002000380007C080
:1023E0003C0007C038000000204039C0060039C05A
:1023F000204000002000384007C038402000000086
:10240000304021C02640384020C0000000000000BD
:102410007FE0402040200000000070000C0003809E
:10242000004000000000402040207FE0000000004D
:1024300000002000400020000000000000100010FC
:10244000001000100010001000000000400000000C
:1024500000000000000002800540054003C000406D
:1024600020003FC0044004400380000000000380BF
:102470000440044006400000000003800440244063
:102480003FC00040000003800540054003400000BD
:10249000000004401FC0244024402000000002E04F
:1024A000055005500650042020403FC00440040061
:1024B00003C000400000044027C0004000000000AE
:1024C00000100010041027E00000000020403FC072
:1024D0000140070004C00440204020403FC00040AD
:1024E0000040000007C0040007C0040003C0000053
:1024F000044007C00440040003C000400000038003
:102500000440044003800000041007F0045004401D
:1025100003800000000003800440045007F0001016
:10252000044007C002400400040000000000064010
:102530000540054004C00000000004001F80044066
:1025400000400000040007800040044007C0004035
:102550000400070004C0018006000400060001C05A
:10256000070001C006000000044006C0010006C0CC
:10257000044000000410071004E00180060004007D
:102580000000044005C006400440000000000000B8
:1025900004007BE040200000000000000000FFF08D
:1025A00000000000000040207BE00400000000006C
:1025B000400080004000200020004000000000009B
:1025C000000000000000000000000000000000000B
:1025D00000001FCC000C00000000000000000800FC
:1025E000300060000800300060000000022003FCA2
:1025F0001E20022003FC1E200220000000000E18F6
:1026000011043FFF10840C78000000000F001084BC
:102610000F3800C0077818840078000000780F8415
:1026200010C411240E9800E400840008080068001B
:10263000700000000000000000000000000000002A
:10264000000007E0181820044002000000004002CB
:102650002004181807E000000000000002400240BB
:1026600001800FF0018002400240000000800080E5
:1026700000800FF800800080008000000001000D45
:10268000000E0000000000000000000000000080BC
:102690000080008000800080008000800000000C2E
:1026A000000C000000000000000000000000000618
:1026B000001800600180060018002000000007F0EC
:1026C000080810041004080807F0000000000804BF
:1026D00008041FFC000400040000000000000E0CB1
:1026E00010141024104411840E0C000000000C186B
:1026F00010041104110412880C700000000000E0A6
:102700000320042408241FFC0024000000001F985C
:10271000108411041104108810700000000007F0EC
:1027200008881104110418880070000000001C00C3
:10273000100010FC13001C001000000000000E38F8
:1027400011441084108411440E380000000007006A
:10275000088C10441044088807F0000000000000B6
:102760000000030C030C000000000000000000004B
:1027700000010106000000000000000000000080D1
:10278000014002200410080810040000022002206A
:10279000022002200220022002200000000010047B
:1027A00008080410022001400080000000000E0014
:1027B0001200100C106C10800F00000003E00C18C9
:1027C00013E4142417C4082807D000000004003CB8
:1027D00003C41C40074000E4001C000410041FFC5C
:1027E0001104110411040E880070000003E00C189D
:1027F00010041004100410081C10000010041FFC2A
:10280000100410041004080807F0000010041FFC56
:102810001104110417C410040818000010041FFC50
:102820001104110017C010000800000003E00C188C
:102830001004100410441C780040000010041FFC19
:1028400010840080008010841FFC1004000010041D
:1028500010041FFC1004100400000000000300011D
:10286000100110011FFE10001000000010041FFCDA
:10287000110403801464181C1004000010041FFCD1
:102880001004000400040004000C000010041FFCED
:102890001F0000FC1F001FFC1004000010041FFCA0
:1028A0000C04030000E010181FFC100007F00808DB
:1028B000100410041004080807F0000010041FFCA6
:1028C00010841080108010800F00000007F008189E
:1028D00010241024101C080A07F2000010041FFC2A
:1028E0001104110011C011300E0C000400000E1C68
:1028F00011041084108410441C38000018001000CB
:1029000010041FFC100410001800000010001FF835
:1029100010040004000410041FF8100010001E0032
:1029200011E0001C007013801C0010001FC0103C40
:1029300000E01F0000E0103C1FC000001004180C55
:10294000163401C001C01634180C100410001C000D
:10295000130400FC13041C00100000000804101CE9
:102960001064108413041C04101800000000000000
:1029700000007FFE400240024002000000003000E4
:102980000C0003800060001C0003000000004002F7
:10299000400240027FFE0000000000000000000036
:1029A0002000400040004000200000000001000125
:1029B00000010001000100010001000100004000D1
:1029C000400020000000000000000000000000980F
:1029D000012401440144014400FC000410001FFCD8
:1029E00000880104010400880070000000000070ED
:1029F0000088010401040104008800000000007048
:102A000000880104010411081FFC0004000000F804
:102A1000014401440144014400C8000000000104D5
:102A200001040FFC1104110411001800000000D66D
:102A300001290129012901C90106000010041FFC18
:102A4000008401000100010400FC000400000104F6
:102A5000190419FC00040004000000000000000339
:102A600000010101190119FE0000000010041FFC03
:102A70000024004001B4010C010400000000100417
:102A800010041FFC0004000400000000010401FC0D
:102A90000104010001FC0104010000FC010401FC2F
:102AA000008401000100010400FC0004000000F8A3
:102AB000010401040104010400F80000010101FF08
:102AC000008501040104008800700000000000700F
:102AD000008801040104010501FF00010104010453
:102AE00001FC00840104010001800000000000CC12
:102AF00001240124012401240198000000000100A8
:102B0000010007F80104010400000000010001F8C1
:102B1000000400040004010801FC0004010001801D
:102B20000170000C001001600180010001F0010C37
:102B3000003001C00030010C01F001000000010470
:102B4000018C00740170018C0104000001010181FD
:102B50000171000E00180160018001000000018475
:102B6000010C013401440184010C0000000000004C
:102B70000000000001003EFC400240020000000096
:102B800000000000FFFF0000000000000000400205
:102B900040023EFC01000000000000000000600058
:102BA0008000800040004000200020000000000065
:102BB0000000000000000000000000000000000015
:102BC0000000000000000000000000000000000005
:102BD0000000000000000000000000000000000FE6
:102BE00080380FFE380F8038000000000000000021
:102BF00000000000000000000000010000060000CE
:102C00000C00003800003100000600000C00003805
:102C1000000030000000000000000000618000673C
:102C2000F807F980006180006180006180006180A8
:102C30000067F807F98000618000000000000000D4
:102C4000000001C0E003E0F00630080418081FFF90
:102C5000FE040E080787F00381E00000000000007A
:102C600001F000060C00040408060C7001F9C00015
:102C70000E00003BE000EC18070808040C180003E5
:102C8000E00000000001E00007F003F818041C0851
:102C900004170807E1D003C0E00023B0003C08009F
:102CA00020080000100000000000000100003100BA
:102CB000003200001C0000000000000000000000C6
:102CC0000000000000000000000000000000000004
:102CD0000000000000000000000000007F0001FF75
:102CE000C00780F00C001810000420000200000053
:102CF0000000002000021000040C00180780F00102
:102D0000FFC0007F00000000000000000000000085
:102D100000000000000000004200006600006600A5
:102D2000003C0000180003FFC0001800003C000039
:102D30006600006600004200000000000800000875
:102D40000000080000080000080001FFC0000800A3
:102D50000008000008000008000008000000000053
:102D6000000100003100003200001C0000000000E3
:102D70000000000000000000000000000000000053
:102D80000000000008000008000008000008000023
:102D90000800000800000800000800000800000803
:102DA00000000000000000000000000038000038B3
:102DB00000003800000000000000000000000000DB
:102DC00000000000000000000000000000060000FD
:102DD0001C000070000180000E0000380000C000E0
:102DE0000700001C00003000000000000000000090
:102DF0007F8001FFE00380700600180400080400D3
:102E00000806001803807001FFE0007F80000000CA
:102E10000000000000000100080100080100080394
:102E2000FFF807FFF8000008000008000008000095
:102E30000000000000000001C03802C058040098E3
:102E4000040118040218040418061C1803F81801D9
:102E5000E0F800000000000000000001C0E003C036
:102E6000F004000804080804080806180803F41809
:102E700001E7F00001E00000000000000000000099
:102E80000300000D00001100006100008108030133
:102E90000807FFF80FFFF800010800010800000014
:102EA0000000000000E007FCD00608080610080635
:102EB0001008061008061838060FF00607C00000B4
:102EC00000000000000000003F8001FFE0038430AC
:102ED000020818041008041008041008071810034A
:102EE0000FF00007C000000000000000000003C059
:102EF000000700000600000600F80607F8061800A4
:102F000006E00007000006000000000000000001CD
:102F1000E1E003F7F0063410041808041808040C64
:102F200008040C0806161803F3F001C1E0000000C5
:102F300000000000F80003FC300306380402080417
:102F400002080402080404100308F001FFC0007F17
:102F50000000000000000000000000000000000071
:102F60000000000070380070380070380000000069
:102F70000000000000000000000000000000000051
:102F80000000000000000000301A00301C000000AB
:102F90000000000000000000000000000000000031
:102FA0000000000800001400002200004100008022
:102FB000800100400200200400100800080000000A
:102FC000000000002100002100002100002100007D
:102FD000210000210000210000210000210000212B
:102FE00000000000000000000000080008040010BD
:102FF000020020010040008080004100002200000B
:10300000140000080000000000000003C00004C01D
:1030100000040000080038080F38080838081000BD
:103020000C300007E00003C00000000000000000BA
:103030003F8000FFE0038070020F1006708804C01C
:1030400088048308047F8802C09003012000FE40AA
:103050000000080000180001F8003E0801C2000747
:10306000020007E20000FE00001FC80001F8000097
:103070003800000804000807FFF807FFF8040808F4
:1030800004080804080804080806180803F41801CE
:10309000E7F00001E0000000000000003F8001FFB9
:1030A000E00380700200180400080400080400080F
:1030B0000400100600200780C0000000040008077C
:1030C000FFF807FFF80400080400080400080400E3
:1030D0001802001003807001FFE0007F80000000F4
:1030E00004000807FFF807FFF804080804080804AC
:1030F0000808040808043E08040008060018010037
:103100006000000004000807FFF807FFF804080843
:10311000040800040800040800043E00060000063D
:103120000000018000000000000000003F8001FF5F
:10313000E003807006001804000804020804020876
:103140000203F00783F000020000020004000807F9
:10315000FFF807FFF804080800080000080000084E
:103160000000080004080807FFF807FFF80400083B
:103170000000000000000400080400080400080724
:10318000FFF807FFF8040008040008040008000026
:103190000000000000000000000600000700000121
:1031A00004000104000104000307FFFE07FFFC0404
:1031B000000004000004000004000807FFF807FFF7
:1031C000F8040C08001800003E0004C7800503C87E
:1031D0000600F8040038040018000008040008077E
:1031E000FFF807FFF80400080000080000080000CE
:1031F000080000080000080000180000600000003F
:1032000004000807FFF807800807FC00007FC000E3
:1032100003F80007C000780007800807FFF807FFE1
:10322000F804000804000807FFF807000803C000BE
:1032300000E000003800001E000007000001C0048C
:1032400000F007FFF8040000000000007F8001FF8D
:10325000E003807006001804000804000806001847
:1032600003003001FFE0007F800000000400080739
:10327000FFF807FFF8040408040400040400040431
:1032800000040400060C0003F80001F00000000038
:10329000000000007F8001FFE003807006008804CA
:1032A00000880400C806003C03003E01FFE6007FE2
:1032B0008400000004000807FFF807FFF80408086E
:1032C000040800040C00040F00040BC00610F003F7
:1032D000F03801E00800000800000001E0F803F009
:1032E00030063010041808041808040C08040C08F0
:1032F0000206180207F00781E000000001800006C6
:10330000000004000004000004000807FFF807FFA5
:10331000F80400080400000400000600000180001A
:1033200004000007FFE007FFF00400180000080099
:10333000000800000800000800000804001007FF53
:10334000E004000004000006000007E00007FE00A3
:10335000041FE00001F80000380001E0043E00070F
:10336000C00006000004000004000007E00007FFA2
:10337000C0041FF80007C007F80007FF80043FF8EB
:103380000007C004F800070000040000000000046B
:10339000000806001807C07805F1C8003E00001FAD
:1033A000800463E80780F8060018040008000000A5
:1033B00004000006000007800007E008047C080005
:1033C0001FF80007F800180804E0080700000600CE
:1033D000000400000000000100080600380400F8A6
:1033E0000403E8040F08047C0805F00807C0080778
:1033F0000018040060000000000000000000000051
:10340000000000000000003FFFFE2000022000023C
:103410002000022000022000020000000000000046
:10342000000008000007000000C00000380000068F
:10343000000001C000003000000E0000010000008C
:1034400000000000000020000220000220000220F6
:1034500000022000023FFFFE00000000000000000C
:103460000000000000000000000000000008000054
:1034700010000030000020000030000010000008A4
:10348000000000000000000000000100000100003A
:103490000100000100000100000100000100000126
:1034A0000000010000010000010000010000000018
:1034B00000000000002000002000001000001000AC
:1034C00000000000000000000000000000000000FC
:1034D0000000000000F00019F8001B18002208008E
:1034E0002608002408002410003FF8001FF8000000
:1034F0000800001800000004000007FFF80FFFF0AC
:1035000000181800100800200800200800301800DB
:103510001FF0000FC00000000000000007C0001FE7
:10352000F0001830002008002008002008003C08A7
:10353000001C1000006000000000000000000000FF
:1035400007C0001FF00038180020080020080020E5
:103550000804101007FFF80FFFF000001000000033
:103560000000000000000007C0001FF00012300043
:103570002218002208002208003208001E10000E47
:1035800020000000000000002000002008002008AB
:1035900001FFF803FFF806200804200804200807AC
:1035A000200003000000000000000000000E000EDC
:1035B0006E001FF30031B10020B10020B100319145
:1035C000001F13002E1E00200E003000000000041B
:1035D000000807FFF80FFFF8001008002000002087
:1035E00000002008003FF8001FF80000080000005D
:1035F000000000000000002008002008002008064D
:103600003FF8063FF800000800000800000800002E
:1036100000000000000000000000000003000003A4
:10362000002001002001002003063FFE063FFC00B1
:10363000000000000000000000000004000807FF78
:10364000F80FFFF8000188000300002FC00038F8D1
:1036500000203800200800000800000000000000E2
:10366000000004000804000804000807FFF80FFF2A
:10367000F80000080000080000080000000000003A
:10368000002008003FF8003FF8001008002000006C
:103690003FF8003FF8001008002000003FF8003F0E
:1036A000F8000008000000002008003FF8003FF884
:1036B000001008001000002000002008003FF80063
:1036C0001FF80000080000000000000007C0000F05
:1036D000F0001830003008002008002008003008F2
:1036E000001830000FF00007C000000000000000CC
:1036F0002001003FFF003FFF0010110020090020C3
:1037000008002008003038001FF0000FC000000043
:103710000000000007C0001FF0003818002008005B
:103720002008002009001011001FFF003FFF0000CB
:1037300001000000002008002008002008003FF8D9
:10374000003FF800080800100800200800200000D2
:103750003000003000000000000000000000000CFD
:1037600078001E1800330800230800210800218873
:103770000021980030F000386000000000000000D8
:10378000200000200000200000FFF003FFF80020D0
:1037900008002008002008000030000000000000A1
:1037A000000000002000003FF0007FF8000018003B
:1037B0000008000008002010003FF8007FF0000023
:1037C00010000000000000002000003000003C005D
:1037D000003F800023F0000078000070002380008C
:1037E0003C00003000002000002000003C00003FB2
:1037F000E00023F80000E0002700003E00003FE06A
:103800000021F80001E0003E000020000000000060
:103810002008002008003838003E68002780000398
:10382000C8002CF8003838002018002008000000DC
:10383000000000002000003003003C01003F830036
:1038400023EC000070002380003C000020000020DA
:1038500000000000000000000000003808002038D0
:103860000020F80023E8002F88003E0800380800F8
:1038700020180000700000000000000000000000A0
:10388000000000000000000008000014001FF7FC0A
:1038900030000620000200000000000000000000D0
:1038A0000000000000000000000000000000FFFF1A
:1038B000FF00000000000000000000000000000009
:1038C0000000000000002000023000061FF7FC008E
:1038D00014000008000000000000000000000000CC
:1038E0000000000000000018000060000040000020
:1038F0004000002000001000000800000400000448
:1039000000000C000010000020082410226021801C
:103910002641393202040C18F06013801060101830
:10392000140418020001000002000202420433F8ED
:10393000000400023FF22022404200023FFE2042EB
:1039400020223FC20002000000000008800880081A
:1039500080048004F81F0000C0073C19801040104C
:1039600060100010001C000000000000200010107B
:103970005018D00150025242543FD001700508083F
:103980000818080000000000000000000010F00F00
:10399000440048074001F01F4801C804A80704205C
:1039A000FC6F003000000000000000018000600299
:1039B0009E3EA41350094002C0014002FCFF2001BA
:1039C0002001E00020000000000080008000843022
:1039D000CC1F08080000C02238250819BC1E44214D
:1039E0004060004000400000000000000020701017
:1039F000200EA00AA0089C1F902250225062306026
:103A000010400040000000000000000000000030F6
:103A1000481A68036803D8C24C3E24023609001BCA
:103A2000001000000000000000000000C010A01303
:103A30009C0A402A2014200AA00564032C1F902011
:103A4000102100200030000000000000F01F1009CD
:103A50001009F01F4000400140024020FC63441C5C
:103A6000400040000000000000000001C000A03F36
:103A70001C009010D014B00F480AC80A0000E003E0
:103A80000020FC7F000000000000000080004018C3
:103A9000C40F04048000800080008200FC7F40008E
:103AA000400040000000000000008000801E8002F6
:103AB0007012923F7C054805001CF0039000883F7F
:103AC0004400400040000000000000040002900795
:103AD000700590038820A01E90014806D41F280579
:103AE0005844C87F00000000000080008000443F70
:103AF000CC0808240010000CC4033803000400188C
:103B000000100010000000000000801080108813DA
:103B1000980C00100010F82FA82954257C258C2221
:103B20004026002400200000000000000000E03DCE
:103B3000202100210021FE1F841080108010803180
:103B4000601C000000000000000000018000402018
:103B5000BC1F08008020A027A01AFC0F5011502184
:103B6000D0210020000000000000000000400030D4
:103B7000F80F08024802C81F7802080104000C2050
:103B8000F87F000000000000D03B0008C03B0008A8
:103B9000E03B0008D83B0008C83B0008B83B0008E1
:103BA0001F1C1F1E1F1E1F1F1E1F1E1F1F1D1F1E2F
:103BB0001F1E1F1F1E1F1E1F4368616E67650000CA
:103BC00054696D6500000000436C6F736500000070
:103BD000436C6F636B0000004F70656E0000000067
:103BE00054696D6572000000083C00080000002068
:103BF00024000000E81900082C3C000824000020E4
:103C0000F4080000F8190008000000000000E907AF
:103C10000B001D000000240037000000000007001A
:0C3C20000001081E000000000000000071
:04000005080000ED02
:00000001FF
