:020000040800F2
:10000000E808002005010008FD100008590D00084F
:10001000F91000087D0900083B1C000800000000E2
:10002000000000000000000000000000B116000801
:10003000490A00080000000081150008591900084D
:100040001F0100081F0100081F0100081F01000810
:100050001F0100081F0100081F0100081F01000800
:100060001F0100081F0100081F0100081F010008F0
:100070001F0100081F0100081F0100081F010008E0
:100080001F0100081F0100081F0100081F010008D0
:100090001F0100081F0100081F0100081F010008C0
:1000A0001F0100081F0100081F0100081F010008B0
:1000B0001F0100081F0100081F0100081F010008A0
:1000C0001F0100081F0100081F0100081F01000890
:1000D0001F010008551B00081F0100081F01000830
:1000E0001F0100081F0100081F010008DFF810D0E1
:1000F00000F07EFB00480047D9260008AFF30080DF
:10010000E80800200648804706480047FEE7FEE76B
:10011000FEE7FEE7FEE7FEE7FEE7FEE7FEE7FEE7B7
:1001200099190008ED0000082DE9F0410024061B94
:10013000254671F1000605DA01240027D0EB0700FF
:1001400067EB0101161E73F1000605DA0027D2EBFA
:100150000702012567EB030300F02AF986460E46E5
:1001600017469C46AC4204D00025D0EB050E65EB4B
:10017000010624B10020D2EB000760EB030C7046AF
:1001800031463A466346BDE8F081F0B480EA0102A8
:10019000D40F4200B2EB410F02D20246084611468C
:1001A0004A0042D0C30DDDB2C1F3C752AD1A202DB3
:1001B00035DAC1F3160141F4000204B15242C5F12F
:1001C000200602FA06F12A411044B3EBD05F23D097
:1001D000C4B1012DA0EBC35009DCF0BC4FF00042CC
:1001E00002EAC352DBB200F5000000F01BB9400088
:1001F00000F1807000EBC350A0F1807040EAD17034
:10020000490009E0490841EAC071A0EBC35000F57C
:100210000000400800EBC350F0BC00F0FAB86142A7
:10022000012202EB4101001BF6E7F0BC704781F0B0
:100230000041AAE780F00040A7E780EA010210B57C
:1002400002F00043400022D04A001FD0010E01EB13
:100250001261C0F35600C2F3560240F4000042F4AB
:100260000002A0FB022000047F39140400D0401CCF
:1002700050EA124001D44000491EC2B20C0604EB01
:10028000D010401C4008802A02D003E0002010BD9E
:1002900020F00100002900DA0020184310BD30B41E
:1002A00080EA010202F0004530F0004221F00040F7
:1002B00013D090B1C30DD40DC2F31601C0F31600D4
:1002C000E41A41F4000140F400027D34914201D36C
:1002D000641C00E04900002C02DA30BC00207047AA
:1002E0004FF400000023914201D3891A03434008D0
:1002F0004FEA4101F7D151B1914202D14FF0004193
:1003000005E002D24FF0010101E06FF0010103EBC3
:10031000C450284430BC00F07CB8C10F80EAE070C3
:100320000844CA079623002100F07CB896230022D7
:10033000114600F077B800F0004230F000400AD0DB
:10034000C10D01F56071C0F3160042EA0151C20807
:10035000400711437047002001467047002801DB29
:10036000C0F10040002901DBC1F10041814270472A
:10037000002801DBC0F10040002901DBC1F1004190
:100380008842704730B50B460146002020220124E8
:1003900009E021FA02F59D4205D303FA02F5491B53
:1003A00004FA02F52844151EA2F10102F1DC30BD69
:1003B0002DE9F05F0546002092469B46884606469A
:1003C000814640241BE0284641464746224600F02D
:1003D00030FA53465A46C01A914110D31146184676
:1003E000224600F017FA2D1A67EB01084F46224605
:1003F0000120002100F00EFA17EB00094E41201EEB
:10040000A4F10104DFDC484631462A464346BDE8F4
:10041000F09F0029A8BF7047401C490008BF20F08A
:100420000100704710B4B0FA80FC00FA0CF050EAFA
:10043000010404BF10BC704749B1CCF1200421FA7B
:1004400004F411FA0CF118BF012121430843A3EB76
:100450000C01CB1D4FEA00614FEA102042BF002083
:1004600010BC704700EBC35010440029A4BF10BC5F
:100470007047401C490008BF20F0010010BC7047C5
:100480002DE9FE4F804681EA0300C00F0C46009024
:1004900021F0004123F00045B8EB0200A94105D24C
:1004A0004046214690461C460B46024623F000403B
:1004B000104347D0270DC7F30A00C3F30A51029037
:1004C000401A019040286BDAC3F3130040F4801BFC
:1004D0000098924620B10023D2EB030A63EB0B0B8A
:1004E00001985946C0F14002504600F093F9064683
:1004F0000D4650465946019A00F0ABF910EB080042
:100500006141002487EA115284EAE7731A4340D01C
:10051000009A62B3019A012A4FEA075215DC001BC8
:1005200061EB02014FF0004202EA0752CDE90042BE
:10053000001C41F5801132462B4600F0ABF903B0A8
:10054000BDE8F08F40462146F9E7001B61EB020150
:10055000001C41F5801300185B412018A2F500171C
:1005600047EB030140EAD570B6196D4111E06D0803
:100570004FEA360645EAC0754FEA0752001B61EBA9
:100580000201001C41F5801149084FEA30000019B2
:10059000514132462B4603B0BDE8F04F00F06BB935
:1005A0000098012240000023D0EB020263EBE073CD
:1005B000009821464FEAE074B8EB000061EB0401BB
:1005C000E9E783F000435BE781F0004158E72DE95C
:1005D000FE4F81EA030404F0004421F0004100943E
:1005E0004FF0000B23F0004350EA01045ED052EAC2
:1005F00003045BD0C3F30A54C1F30A552C44A4F29C
:10060000F3340194A0FB0254C1F3130141F48011AF
:10061000C3F3130343F4801301FB024400FB034EB6
:10062000840A970A44EA815447EA8357A4FB07687F
:1006300002958D0A05FB07854FEA932C04FB0C54A9
:100640002705029D4FEA065847EA1637B5EB08051D
:100650006EEB070C870E920E47EA811742EA83126F
:10066000A7FB0201B6EB0B0164EB00042B0D43EA80
:100670000C335E1844EB1C50DA465146E7FB02018E
:10068000C5F313044FEA0B3343EA14534FEA043221
:10069000019C43EA0603A4F10C040294009CCDE9FA
:1006A00000B400F0F7F803B0BDE8F08F0020014679
:1006B000F9E72DE9F04D81EA030404F0004B21F045
:1006C000004514464FF0000A23F0004150EA0502AD
:1006D00020D054EA01021DD0C5F30A570246C5F3E3
:1006E0001303C1F31300C1F30A5640F4801543F419
:1006F0008013A7EB0608101BD64608F2FD3873EBF3
:10070000050002D308F1010801E092185B41B8F13D
:10071000000F03DA00200146BDE8F08D00204FF401
:100720008011064684460EE0171B73EB050705D3C0
:10073000121B63EB050306434CEA010C49084FEA20
:10074000300092185B4150EA0107EDD152EA0300F4
:1007500012D082EA040083EA0501084305D0101B89
:10076000AB4106D20122002306E000224FF00043F5
:1007700002E06FF0010253101AEB06004CEB085137
:1007800010EB0A0041EB0B01BDE8F04D00F073B82F
:10079000C1F30A52C1F3130140F2FF3341F4801157
:1007A0009A4202DA00200146704740F233439A42EF
:1007B000A2F2334202DC524200F03BB800F02AB809
:1007C00030B5041E71F1000404DB4FF000444042D8
:1007D00064EB0101141E73F1000405DB1C464FF0AD
:1007E0000043524263EB0403994208BF904230BD7C
:1007F000064C074D06E0E06840F0010394E807006E
:1008000098471034AC42F6D3FFF774FC64420008FA
:1008100084420008202A04DB203A00FA02F100207A
:1008200070479140C2F1200320FA03F3194390402E
:100830007047202A04DB203A21FA02F00021704799
:1008400021FA02F3D040C2F1200291400843194638
:100850007047202A06DBCB17203A41FA02F043EA20
:10086000E07306E041FA02F3D040C2F12002914069
:1008700008431946704710B5141E73F1000408DAD6
:10088000401C41F1000192185B411A4301D120F054
:10089000010010BD2DE9F04D92469B4611B1B1FA11
:1008A00081F202E0B0FA80F220329046FFF7B2FF08
:1008B00004460F4640EA0A0041EA0B0153465A46F5
:1008C000084313D0114653EA010019D0C8F1400281
:1008D0005046FFF7AEFF05460E4650465946424683
:1008E000FFF798FF084305D0012004E02046394671
:1008F000BDE8F08D0020054346EAE0762C433743FF
:100900000A986305E40AA0EB08000022FD0A44EA05
:1009100047540A3002D500200146E9E701051019C5
:100920006941DDE9084500196941BDE8F04DA2E7DC
:1009300070B5282000F006FA002400250CE0052000
:1009400000F0B4F906462146FFF71FFC04460A20D2
:1009500000F07CF8681CC5B2142DF0DB0449204679
:10096000FFF79DFC0349086001200349087070BD32
:100970000000A041100000201400002000BFFEE78E
:1009800000B589B00121082000F00CFE01210220F1
:1009900000F0F8FD0120ADF8200018208DF82300AC
:1009A00003208DF8220008A9134800F09BF8472087
:1009B000ADF8140040F2E730ADF818000020ADF8B3
:1009C0001A00ADF8160005A90C4801F071F8602076
:1009D000ADF804000120ADF806004FF4FA70ADF850
:1009E0000A0001A9054801F013F80121034801F0AC
:1009F00003F809B000BD0000000C014000040040F5
:100A000070B5044600250DE000F016F84FF4FA70BA
:100A100000F01CF800F00AF84FF4FA7000F016F835
:100A2000681CC5B2A542EFDB70BD00000020014983
:100A3000088070473C0400404FF461700149088011
:100A4000704700003C040040704700000146114A16
:100A500012884A434FF0E0235A6100229A611A46F5
:100A6000126942F001021A6100BF4FF0E0221069E2
:100A700000F001021AB100F48032002AF5D04FF0E4
:100A8000E022126922F001024FF0E0231A610022F5
:100A90009A6170471C0000200146114A12784A43AF
:100AA0004FF0E0235A6100229A611A46126942F01F
:100AB00001021A6100BF4FF0E022106900F001024C
:100AC0001AB100F48032002AF5D04FF0E02212690A
:100AD00022F001024FF0E0231A6100229A61704770
:100AE0001A0000202DE9F0410246002500260020D2
:100AF00000230024002791F803C00CF00F0591F8A3
:100B000003C00CF0100CBCF1000F03D091F802C030
:100B10004CEA050591F800C0BCF1000F31D0146813
:100B200000202BE04FF0010C0CFA00F3B1F800C0EC
:100B30000CEA03069E4220D183004FF00F0C0CFA02
:100B400003F7BC4305FA03FC4CEA040491F803C024
:100B5000BCF1280F06D14FF0010C0CFA00FCC2F8D2
:100B600014C00AE091F803C0BCF1480F05D14FF062
:100B7000010C0CFA00FCC2F810C0401C0828D1D3AC
:100B80001460B1F800C0BCF1FF0F34DD54680020E0
:100B90002EE000F1080C4FF0010808FA0CF3B1F850
:100BA00000C00CEA03069E4221D183004FF00F0CD7
:100BB0000CFA03F7BC4305FA03FC4CEA040491F871
:100BC00003C0BCF1280F05D100F1080C08FA0CF89D
:100BD000C2F8148091F803C0BCF1480F07D100F1AE
:100BE000080C4FF0010808FA0CF8C2F81080401CFD
:100BF0000828CED35460BDE8F081024600209368F7
:100C00000B400BB1012000E00020704741617047AC
:100C10000161704708B50121042000F0C3FC0120E8
:100C2000ADF8000004208DF8030069460148FFF785
:100C300059FF08BD0008014008B50121042000F05B
:100C4000B1FC0120ADF8000010208DF80300032056
:100C50008DF8020069460248FFF744FF08BD000016
:100C60000008014008B50121042000F09BFC02208F
:100C7000ADF8000010208DF8030003208DF802006D
:100C800069460848FFF72EFF0120ADF80000042058
:100C90008DF8030069460348FFF724FF002002494E
:100CA000086008BD00080140840121422DE9F0419F
:100CB0000446204600F01EF805460C4800682E1A2F
:100CC00000210B480068FFF749FB03D14FF07E502D
:100CD000074908603046FFF720FB074604480168D3
:100CE0003846FFF7DCFABDE8F08100000000002084
:100CF000040000202DE9F041044600210E460F4675
:100D000000250AE000F068FC861947EBE0774FF019
:100D10000500FFF79BFE681C85B2A542F2DB224668
:100D2000002330463946FFF7FFF9BDE8F0810000A7
:100D3000024A1060024A1160704700000000002063
:100D40000400002010B504462046FFF7D3FF0149F8
:100D5000086010BD0000002000BFFEE708B50121BB
:100D6000082000F01FFC4020ADF8000003208DF8A3
:100D7000020010208DF8030069460848FFF7B2FE14
:100D80008020ADF8000069460448FFF7ABFE012063
:100D9000034908600349C1F89C0108BD000C0140EB
:100DA000988121420080214270B5044600F06EFC1B
:100DB000002014490860002520E004F0800000288D
:100DC00004DD01200F49091D086003E000200D49E2
:100DD000091D08606006040E0220FFF75DFE012079
:100DE000084908600220FFF757FE00200649C1F8B5
:100DF00098010220FFF750FE681CC5B2082DDCDB0D
:100E000070BD0000988121420080214210B500F0A1
:100E10003DFC0120094908600949C1F898010520F5
:100E2000FFF73AFE0020054908600620FFF734FE70
:100E300000200349C1F8980110BD00009C812142A7
:100E40000080214210B500F021FC00200949086013
:100E50000949C1F89C010120064908600620FFF7F6
:100E60001BFE01200449C1F89C010620FFF714FE77
:100E700010BD0000988121420080214210B500245D
:100E800001200F490860FFF707FE00F0F1FB012089
:100E90000C49C1F89801FFF7FFFD07E0601CC4B2E0
:100EA000FA2C03DDFFF7CEFF012010BD0448803887
:100EB00000680028F2D10249091F086000BFF4E76A
:100EC0009C8121420080214208B50121082000F0C8
:100ED00069FB0121082000F065FB0121082000F0DA
:100EE00061FB0121082000F05DFB0121082000F0DA
:100EF00059FB0121082000F055FB0121082000F0DA
:100F000051FB0121082000F04DFB10208DF803005B
:100F100003208DF802004FF48070ADF800006946A0
:100F20002248FFF7DFFD4FF40070ADF8000069467E
:100F30001E48FFF7D7FD4FF48060ADF8000069460A
:100F40001A48FFF7CFFD4FF40060ADF80000694686
:100F50001648FFF7C7FD28208DF803004FF4805096
:100F6000ADF8000069461148FFF7BCFD4FF4005092
:100F7000ADF8000069460D48FFF7B4FD4FF480401E
:100F8000ADF8000069460948FFF7ACFD4FF400409A
:100F9000ADF8000069460548FFF7A4FD00231A4696
:100FA0001946184601F0D6FB08BD0000000C0140B0
:100FB00070B501231A461946184601F0CBFB01F023
:100FC00095FB04460CB9002070BD0320FFF73EFDE1
:100FD00001F08CFB04460CB90020F5E700231A460B
:100FE0001946012001F0B6FB01F080FB0446C4B1B4
:100FF000002504F0010008B101250DE004F0020015
:1010000008B1022508E004F0040008B1032503E05C
:1010100004F0080000B104250120FFF717FD284661
:10102000D2E700231A460121184601F093FB01F094
:101030005DFB0446C4B1002504F0010008B105259C
:101040000DE004F0020008B1062508E004F00400F9
:1010500008B1072503E004F0080000B108250120CD
:10106000FFF7F4FC2846AFE7002301221946184693
:1010700001F070FB01F03AFB0446C4B1002504F016
:10108000010008B109250DE004F0020008B10A25AD
:1010900008E004F0040008B10B2503E004F00800A8
:1010A00000B10C250120FFF7D1FC28468CE7012375
:1010B00000221146104601F04DFB01F017FB0446DB
:1010C000C4B1002504F0010008B10D250DE004F0C5
:1010D000020008B10E2508E004F0040008B10F2555
:1010E00003E004F0080000B110250120FFF7AEFC7A
:1010F000284669E7002067E700BFFEE77047000069
:1011000002490143024A1160704700000000FA05DD
:101110000CED00E070B500240CE0002506E0002096
:10112000074901EBC5010855681CC5B2802DF6DBE7
:10113000601CC4B2082CF0DB00F0A2F870BD000007
:1011400020000020F0B5144600267F2801DC3F294E
:1011500000DDF0BD0B46CF1701EB5777FF10C7F14D
:101160000707FAB2CF1701EB5777FF10A1EBC707BC
:10117000FDB2C5F107070123BB40DEB24CB10A4BFB
:1011800003EBC0039B5C3343074F07EBC007BB5423
:1011900008E0054B03EBC0039B5CB343024F07EB36
:1011A000C007BB5400BFD4E72000002010B5FFF7F4
:1011B000D5FD0021AE2000F04FF90021D52000F030
:1011C0004BF90021502000F047F90021A82000F041
:1011D00043F900213F2000F03FF90021D32000F027
:1011E0003BF90021084600F037F90021402000F0CB
:1011F00033F900218D2000F02FF90021142000F098
:101200002BF90021202000F027F90021022000F016
:1012100023F90021A12000F01FF90021C02000F0D7
:101220001BF90021DA2000F017F90021122000F04C
:1012300013F90021812000F00FF90021EF2000F0C8
:101240000BF90021D92000F007F90021F12000F06E
:1012500003F90021DB2000F0FFF80021302000F02E
:10126000FBF80021A42000F0F7F80021A62000F0F0
:10127000F3F80021AF2000F0EFF8FFF74BFF10BDAF
:1012800070B507241AE004F1B001C8B2002100F0E3
:10129000E3F80021084600F0DFF80021102000F0FC
:1012A000DBF8002507E0074901EBC501085D0121D6
:1012B00000F0D2F86D1C802DF5DB641E002CE2DA04
:1012C00070BD0000200000202DE9F84F80460F4639
:1012D00016461C46BA462046E31704EB5373DB1050
:1012E00021464FEAE47C04EB5C7C4FEAEC0CA4EB77
:1012F000CC0CBCF1000F02D04FF0010C01E04FF01C
:10130000000C6344224604EBD27C4FEA6C0C03FBD6
:101310000CF303F0FF0BA6F12000C6B200254EE04F
:101320000C2C07D106EB4600274901EB8000405DFD
:10133000009013E0102C05D1244800EB0610405D0E
:1013400000900BE0182C07D106EBC600204901EBFA
:101350008000405D009001E0BDE8F88F4FF000098B
:1013600027E0009800F0800028B1394640460A9AEC
:10137000FFF7E8FE09E00A9808B9012000E0002024
:10138000024639464046FFF7DDFE00984006000E53
:101390000090781CC7B2A7EB0A00A04205D15746BF
:1013A00008F1010000F0FF0806E009F1010000F07B
:1013B000FF09B9F1080FD4DB00BF681CC5B25D4559
:1013C000AEDB00BFC8E7000020280008942C00080E
:1013D00084320008F8B506460F4615461C4621E043
:1013E00004EBD4714910C1F18001B14202DA002648
:1013F0003819C7B2C4F14000B84204DA00200646EA
:101400000746FFF787FE012000902A7823463946D9
:101410003046FFF759FF204604EBD07106EB61011F
:10142000CEB26D1C28787E2802DC28782028D7DAF6
:10143000F8BD7CB504460D4616466B4601AA294602
:10144000204600F0BFF8102332469DF800109DF8AA
:101450000400FFF7BFFF7CBD70B505460C461CB10C
:10146000284601F0C7F902E0284601F0ADF970BD49
:1014700070B5044601F052F805462148007850B98D
:10148000FFF7D4FA4FF400511E48FFF7C1FB0120CB
:101490001D49087070BD1D4801682046FEF768FFB1
:1014A0001CD21948007888B94FF400511548FFF74D
:1014B000ADFBFFF7C1FA1420FFF7C8FAFFF7B6FA41
:1014C0004FF400510F48FFF7A3FB16E0FFF7AEFA09
:1014D0004FF400510B48FFF79BFB0EE0FFF7A6FA15
:1014E0004FF400510748FFF793FB29462046FEF7CB
:1014F00035FF02D200200449087000BFCAE700008F
:101500000900002000100140080000200C0000200D
:1015100008B50121102000F045F84FF40050ADF857
:10152000000010208DF8030002208DF802006946AB
:101530000448FFF7D7FA4FF400510248FFF768FB61
:1015400008BD00000010014070B50446002511E000
:101550004FF400510948FFF759FB9620FFF776FA40
:101560004FF400510548FFF753FB9620FFF76EFA42
:10157000681CC5B2A542EBDB70BD00000010014045
:101580007047000029B1064AD2690243044BDA6170
:1015900004E0034AD2698243014BDA6170470000DC
:1015A0000010024029B1064A92690243044B9A6135
:1015B00004E0034A92698243014B9A61704700003C
:1015C0000010024010B54C1EE406240E1470441E98
:1015D0002407240E1C7010BD70B50024FFF72CFBEF
:1015E000012021490860FFF757FA00201F49C1F880
:1015F0008401FFF70FFB00BF1B4800680028FBD1E8
:101600000120FFF749FA002515E001201649843131
:101610000860FFF741FA64001448D0F8000108B1EF
:1016200044F0010400201049843108600120FFF7D4
:1016300033FA681CC5B2182DE7DB01200A49843152
:101640000860FFF729FA00200849C1F88401012049
:10165000FFF722FA04F4000010B144F07F4401E0E7
:1016600024F07F44204670BD000121420000214249
:1016700008B58020ADF8000048208DF803006946C9
:101680000148FFF72FFA08BD000C014008B5802083
:10169000ADF8000003208DF8020010208DF8030043
:1016A00069460248FFF71EFA08BD0000000C014021
:1016B000704710B500F002F810BD00000CB5002016
:1016C000019000903348006840F480303149086050
:1016D00000BF3048006800F4003000900198401CC2
:1016E0000190009818B90198B0F5A06FF1D1294880
:1016F000006800F4003010B10120009001E00020EB
:1017000000900098012843D12348006840F0100061
:10171000214908600846006820F003000860084678
:10172000006840F0020008601A48406819494860A3
:101730000846406848600846406840F48060486059
:101740000846406820F47C1048600846406840F431
:10175000E81048600846006840F08070086000BFEC
:101760000C48006800F000700028F9D00948406873
:1017700020F00300074948600846406840F0020036
:10178000486000BF0348406800F00C000828F9D109
:101790000CBD000000100240002002407047000015
:1017A00010B54FF4A060FFF7ABFCFFF75BFA4820E1
:1017B00000F0D4F8FFF7FAFCFFF7E2F8FFF784FB3C
:1017C000FFF7A6FE0220FFF71BF9C820FFF73EF93E
:1017D0000B490C48FFF7ACFAFFF7AAF80320FFF714
:1017E000B3FEFFF797FC08A201210220FFF721FEBC
:1017F00008A201210320FFF71CFEFFF741FD10BDE9
:10180000145E28447CD4FFFF573A2020202020205B
:1018100067000000543A20202020206700000000CC
:1018200088B03848006801906AE0FFF7C1FB0546C0
:1018300015B1284600F0A0FE0A20FFF737FA04464B
:101840003148007828B93148046001202E490870D9
:1018500011E02E4801684FF07C50FEF7EEFC064682
:1018600021464FF07C50FEF7E8FC07463146FEF774
:101870008CFC2649086025480068FEF75CFD06469A
:1018800032460B4622A105A800F0DAF905AA032189
:101890000220FFF7CEFD2048007860B145208DF88A
:1018A00004003A208DF805001C4802881CA102A8FB
:1018B00000F0C6F910E054208DF804003A208DF8AD
:1018C000050018480068FEF736FD064632460B460E
:1018D00015A102A800F0B4F901AA01210320FFF725
:1018E000A8FD02AA03210846FFF7A3FDFFF7C8FCE5
:1018F00006480068FFF7BCFD3220FFF7A7F800BFDD
:1019000093E700006042000814000020100000204F
:1019100025362E3166000000180000201600002039
:10192000253575000C00002025352E30660000009E
:10193000042808D14FF0E021096941F004014FF07B
:10194000E022116107E04FF0E021096921F0040174
:101950004FF0E022116170477047000010B5044657
:101960006FF00400FFF7E4FFE11704EB5171C1F3DE
:10197000C701074A11701046007800EB4001C1EB27
:10198000C0104FF6FF7101EAC0000249088010BD87
:101990001A0000201C00002010B51348006840F019
:1019A00001001149086008464068104908400E4986
:1019B0004860084600680E4908400B490860084620
:1019C000006820F4802008600846406820F4FE008B
:1019D00048604FF41F008860FFF76BFE4FF0006017
:1019E0000449086010BD0000001002400000FFF82C
:1019F000FFFFF6FE08ED00E021B1028842F001028F
:101A0000028004E002884FF6FE731A40028070479D
:101A100070B5002400220023058C4FF6FF66354088
:101A20000584028C8388848B4FF68F752C404FF68B
:101A3000FC752C400D882C434FF6FF552A400D892C
:101A40004FF6FF7606EA05252A434D8806EA052566
:101A50002A43154DA84202D0144DA8421DD14FF281
:101A6000FF752A404D894FF6FF7606EA05252A4381
:101A70004FF6FF352A408D8806EA05252A434EF6A3
:101A8000FF752B404DF6FF752B408D8906EA051535
:101A90002B43CD8906EA05152B4383808483CD88AB
:101AA0008587028470BD0000002C01400034014095
:101AB000002202881D4B98420ED01D4B98420BD03D
:101AC000B0F1804F08D01B4B984205D01A4B98427A
:101AD00002D01A4B984204D14FF68F731A404B88AC
:101AE0001A43174B984207D0164B984204D04FF632
:101AF000FF431A40CB881A4302808B8883850B886A
:101B000003850A4B98420BD0094B984208D00E4BE4
:101B1000984205D00D4B984202D00D4B984201D10E
:101B20000B7A03860123838270470000002C01405A
:101B3000003401400004004000080040000C004058
:101B400000100040001400400040014000440140EB
:101B50000048014010B540F225511D4800F03EF804
:101B600010B31B4800F064F8C4B21A48008800F4AF
:101B70000040C8B91748008800F4804060B10A2CC2
:101B800003D000201349088020E01248008840F468
:101B900000401049088019E00D2C06D10D4800883E
:101BA00040F480400B49088010E00A480088C0F3E8
:101BB0000D0009490C5407480088401C054908805D
:101BC00008460088C72801DD0020088010BD0000FD
:101BD000003801401E0000202004002070B502469D
:101BE000002400230025002040F66A16B14200D1EF
:101BF00000BFC1F3421501F01F03012606FA03F3EB
:101C0000012D02D19689334006E0022D02D1168AB9
:101C1000334001E0968A33400C12012606FA04F4A0
:101C20001688344013B10CB1012000E0002070BDD3
:101C300001468888C0F30800704700BFFEE7000037
:101C40000FB4084B10B504A902AA039800F0DEF8FF
:101C5000044602A9002000F05CFC204610BC5DF8A0
:101C600014FB00001325000802E008C8121F08C179
:101C7000002AFAD170477047002001E001C1121F0D
:101C8000002AFBD1704700002DE9FF5F82B00021E0
:101C9000DDE90430020DDDF840B0034318D044F60E
:101CA0001050A2F2FF3242431514119801281FD0A0
:101CB000A5EB0B00401C5FEA000A4FF000064E4FF8
:101CC000DFF83891B046504615D5CAF1000413E04C
:101CD000119801244AA3012801D16FEA0B0102984F
:101CE000119AC0E90031C0E9024206B0BDE8F09F98
:101CF000CBF10000DFE704460021404A491842EBDF
:101D00000450CDE9001012E0E00707D032463B4610
:101D100040464946FEF75BFC8046894632463B46D4
:101D200010461946FEF753FC06460F466410002C79
:101D3000EAD1DDE90401DDE90023BAF1000F06DA9A
:101D4000FEF745FC42464B46FEF741FC05E0FEF738
:101D5000B0FC42464B46FEF7ACFC04460E46002261
:101D6000284BFEF72DFD03D84FF0FF30014607E06A
:101D70000022254B20463146FEF782FBFEF708FD88
:101D8000102409E0002C0ADB0A220023FEF710FBD6
:101D9000039B30321A55641E50EA0102F2D1641CD2
:101DA000039AC4F111031444119A012A03D00122A9
:101DB00008430DD10AE0084304D000204FF0110B76
:101DC000119072E7A3EB0B056D1E0DE05B4504DD82
:101DD0004FF0000205F1010504E003DA4FF00002C4
:101DE000A5F10105002AECD002981199C0E9023151
:101DF000C0E9004579E70000000014400000F03F12
:101E0000300000000000F0430000E03F2DE9FF4FEC
:101E100095B09A46884606460025EEE1252877D1FA
:101E200000242746F94A0121039400E0044316F8F0
:101E3000013F203B01FA03F01042F7D130782A2805
:101E400011D06FF02F033078A0F13002092A16D894
:101E5000039A44F0020402EB820203EB42021044B4
:101E6000761C0390EFE758F8042B0392002A03DA5C
:101E7000504244F40054039044F00204761C30783D
:101E80002E2816D116F8010F44F004042A280DD08C
:101E90006FF02F023078A0F13003092B09D807EB3F
:101EA000870302EB4303C718761CF3E758F8047B5B
:101EB000761C30786C280FD006DC4C2817D06828A8
:101EC0000DD06A2814D104E0742810D07A280FD1DC
:101ED0000DE044F400140AE044F4801401E044F4FA
:101EE00040147278824202D104F58014761C761C6C
:101EF000307866280BD013DC582877D009DC00280E
:101F000075D04528F6D04628F4D047281AD193E159
:101F100018E0632835D0642879D0652812D18BE188
:101F2000702873D008DC6728F1D069286FD06E283C
:101F30000DD06F2806D1ACE073282CD0752874D052
:101F4000782853D05246179990476D1C54E1C4F33A
:101F50000250022809D003280DD0D8F80010042818
:101F60000DD00D6008F1040846E1D8F80010EA171A
:101F7000C1E90052F6E7D8F800100D80F2E70D70C5
:101F8000F0E718F8041B8DF8001000208DF8010010
:101F9000EB46012003E058F804BB4FF0FF30610727
:101FA0004FF0000102D40DE009F101018946B94268
:101FB0000FDA8145F8DB1BF809100029F4D108E09D
:101FC00009F1010189468142FADB1BF80910002959
:101FD000F6D103985346A0EB090721463846179AD5
:101FE00000F080FA284400EB090507E044E008E12E
:101FF0000DE01BF8010B524617999047B9F1010902
:10200000F7D2534621463846179AF2E039E00A21C2
:10201000C4F302524FF0000B0091022A06D058F888
:10202000040BC117032A09D00AE023E008F10700D6
:1020300020F00702F2E80201904605E000B2C11765
:10204000042A01D140B2C117002906DA0A4600214C
:10205000404261EB02012D2202E0220504D52B2231
:102060008DF80420012203E0E20701D02022F7E7E7
:10207000914657E00A2100E010214FF0000B00913B
:102080000BE010214FF0000B44F0040408270091EE
:1020900003E008204FF0000B0090C4F30252022A24
:1020A00005D058F8040B0021032A08D008E008F1F5
:1020B000070020F00702F2E80201904603E080B238
:1020C000042A00D1C0B24FF0000922072AD5327885
:1020D000702A07D0DDF800C08CF0100C5CEA0B0C05
:1020E00005D00EE040228DF80420012208E050EADD
:1020F000010306D030238DF804308DF8052002222C
:102100009146009B83F0080353EA0B030AD150EA7F
:10211000010201D1620705D530228DF804204FF06D
:1021200001097F1E3278582A04D039A20C920CAAD9
:1021300002920BE03BA2F9E75B46009AFEF738F902
:102140000C9B9B5C029A521E0292137050EA010291
:10215000F2D1029804A9081A00F1200B600702D5F9
:1021600024F4803400E001275F4502DDA7EB0B007B
:1021700000E0002000EB0B01009003984944401A56
:102180000390E00306D453462146179A039800F0C3
:10219000A9F90544002706E001A85246C05D179939
:1021A00090476D1C7F1C4F45F6DBE0030CD5534672
:1021B0002146179A039800F095F9054404E0302071
:1021C0005246179990476D1C0099481E00900029AF
:1021D000F5DC08E00298029952460078491C029109
:1021E000179990476D1CBBF10001ABF1010BF1DCBD
:1021F0005BE100F065F90544761C307800287FF437
:102200000DAE19B02846BDE8F08F00000928010086
:10221000303132333435363738396162636465665C
:10222000000000003031323334353637383941421E
:102230004344454600000000600700D4062708F12B
:10224000070020F00700F0E80223804603F0004C6E
:102250005FEA0C0001D097A009E0200501D596A007
:1022600005E0E00701D095A001E0AFF24C0013902B
:10227000307823F0004365280CD006DC452809D0CF
:1022800046281DD047287FD13BE0662818D0672814
:102290007AD136E00021112F01DB112000E0781CFB
:1022A000CDE9000104A90CA8FFF7EEFCDDE90D0162
:1022B0000C9A4FF0000B07F10109109200914EE0CB
:1022C0004FF000400097CDE9011004A90CA8FFF7DA
:1022D000DBFCDDE90D020C9B0F994FF0000B9146E2
:1022E0001093009211B9791C00EB0109B7EB0900BA
:1022F00003D4C0F1FF3B07F10109A9EB07000190EE
:1023000042E0012F00DA01270021112F01DD112009
:1023100000E03846CDE9000104A90CA8FFF7B4FCA1
:10232000DDE90D010C9A00914FF0000BB9461092B7
:1023300021070FD4009A4A4503DA914601E0A9F13A
:102340000109B9F1010F05DD109AA9F10101515CF4
:102350003029F4D0B84202DA10F1040F03DA012177
:10236000CDE9011010E0002803DC8344A9EB000153
:1023700002E0411C494500DD8946A0EB0B00401CF2
:1023800001904FF000400290200705D40198484585
:1023900002DB4FF0FF30019000208DF84B000298D7
:1023A0000DF14B07B0F1004F25D002200C902B20EF
:1023B0000D90029800280CDA404202902D200D90DA
:1023C00007E00A210298FDF7DDFF3031029007F89F
:1023D000011D0C99481E0C900029F2DC029800287F
:1023E000EFD1791E0D980870307800F0200040F091
:1023F000450007F8020D11A8C01BC01D02901398DC
:10240000007800B1012000EB0901019801EBE071B7
:10241000029801440398401A401E0390E00306D43A
:1024200053462146179A039800F05CF80544139828
:10243000007818B15246179990476D1CE00323D5D8
:1024400053462146179A039800F04CF805441BE0C8
:10245000BBF1000F07DB0098584504DD1098179971
:1024600010F80B0001E01799302052469047019870
:102470000BF1010B401E05F10105019004D12E2046
:102480005246179990476D1CB9F10001A9F1010955
:10249000DEDC05E017F8010B5246179990476D1CDA
:1024A0000299481E02900029F4DC53462146179AEF
:1024B00003989EE62D0000002B0000002000000085
:1024C0002DE9F041044600251E461746880404D431
:1024D00005E039462020B0476D1C641EF9D528461A
:1024E000BDE8F0812DE9F041044600251E469046E6
:1024F000C80301D5302700E02027880404D505E073
:1025000041463846B0476D1C641EF9D52846BDE8E3
:10251000F0810A68531C0B601070704710B50749B2
:1025200007480068FDF783FE044600212046FDF7BA
:1025300015FF01D2002010BD2046FCE7000020411D
:102540000C00002010B50848007848B10748007812
:10255000002805DD06480088FDF7E8FE054908600B
:1025600000F0EAF810BD000018000020190000205B
:10257000160000200C00002010B5044601204E4932
:102580000870FEF753FA4FF400514C48FEF740FB39
:10259000112C77D2DFE804F08A0A0B0C530D0E0FD2
:1025A000591011125C8B0977660000BF00BF00BF95
:1025B00000BF00BF00BF00BF00BF00BF0020012C54
:1025C00001D101201EE0022C01D102201AE0032CCF
:1025D00001D1032016E0052C01D1042012E0062CC5
:1025E00001D105200EE0072C01D106200AE0092CBC
:1025F00001D1072006E00A2C01D1082002E00B2CB3
:1026000000D109202E49097839B900212D4A1180BD
:102610002D4A117001212A4A11702B490978042989
:102620000CDA2849098801EB810100EB4101254AB8
:10263000118025490978491C234A11703AE000F0BD
:102640007BF801201E49087034E0FFF77BFF31E082
:10265000FFF778FF1D491E480068FDF796FD1C49ED
:10266000086027E0FFF76EFF184919480068FDF77A
:102670007FFE06D2154916480068FDF7D8FD1449BB
:10268000086017E012E00E48007830B10E4800787C
:10269000002802DDFFF756FF07E00E48007808B972
:1026A000012000E000200B49087003E000BFFFF7A5
:1026B00049FF00BF00BF10BD08000020001001400E
:1026C0001800002016000020190000200000204102
:1026D0000C0000200900002010B5FFF761F8FFF79B
:1026E0005DF8FFF79DF8002010BD00002DE9F041D6
:1026F0004FF480510F48FEF780FA04464FF4005122
:102700000C48FEF77AFA05464FF480410948FEF777
:1027100074FA06464FF400410648FEF76EFA074683
:1027200044EA450040EA860040EAC700C0B2BDE87E
:10273000F0810000000C014000200349088003499B
:102740000870034908707047160000201900002027
:10275000180000202DE9F04104460D4616461F469C
:102760002CB14FF480711748FEF752FA04E04FF491
:1027700080711448FEF74AFA2DB14FF400711148E8
:10278000FEF746FA04E04FF400710E48FEF73EFAF9
:102790002EB14FF480610B48FEF73AFA04E04FF493
:1027A00080610848FEF732FA2FB14FF40061054806
:1027B000FEF72EFA04E04FF400610248FEF726FA15
:1027C000BDE8F081000C014010B50446FEF71EFB89
:1027D0007820FEF7E9FAFEF751FB0020FEF7E4FA55
:1027E000FEF74CFB2046FEF7DFFAFEF747FBFEF74D
:1027F00029FB10BD10B50446FEF708FB7820FEF754
:10280000D3FAFEF73BFB4020FEF7CEFAFEF736FB8D
:102810002046FEF7C9FAFEF731FBFEF713FB10BDA9
:1028200000000000000000000000000000000000A8
:102830003F40000000000000000030004000300079
:102840004000000009000BC03D000BC03D00090026
:1028500018C024407FE0224031800000180024C0CE
:102860001B000D803240018003801C4027401C80EB
:102870000740004010006000000000000000000061
:102880000000000000001F80204040200000402089
:1028900020401F8000000000090006001F80060085
:1028A00009000000040004003F8004000400000050
:1028B00000100060000000000000000004000400A0
:1028C00004000400040000000000004000000000BC
:1028D00000000000002001C0060038004000000099
:1028E0001F802040204020401F800000000010403A
:1028F0003FC000400000000018C02140224024409A
:102900001840000010802040244024401B8000001C
:1029100002000D0011003FC0014000003C80244037
:1029200024402440238000001F8024402440344061
:10293000038000003000200027C038002000000085
:102940001B802440244024401B8000001C0022C027
:10295000224022401F8000000000000008400000CC
:102960000000000000000000046000000000000003
:10297000000004000A001100208040400900090006
:1029800009000900090000000000404020801100FB
:102990000A00040018002000234024001800000052
:1029A0001F802040274029401F400000004007C0F2
:1029B00039000F0001C0004020403FC024402440A7
:1029C0001B8000001F8020402040204030800000FD
:1029D00020403FC0204020401F80000020403FC0DA
:1029E00024402E4030C0000020403FC024402E0034
:1029F000300000000F001080204022403380020091
:102A000020403FC0040004003FC020402040204040
:102A10003FC02040204000000060202020203FC018
:102A20002000200020403FC024400B0030C0204048
:102A300020403FC020400040004000C03FC03C005C
:102A400003C03C003FC0000020403FC00C402300BA
:102A50003FC020001F802040204020401F800000F9
:102A600020403FC024402400180000001F80214067
:102A7000214020E01FA0000020403FC0244026004D
:102A800019C0004018C0244024402240318000007A
:102A9000300020403FC020403000000020003F8038
:102AA000004000403F80200020003E0001C00700A1
:102AB00038002000380007C03C0007C03800000084
:102AC000204039C0060039C02040000020003840B6
:102AD00007C0384020000000304021C02640384068
:102AE00020C00000000000007FE0402040200000E7
:102AF000000070000C000380004000000000402037
:102B000040207FE000000000000020004000200086
:102B10000000000000100010001000100010001055
:102B200000000000400000000000000000000280E3
:102B30000540054003C0004020003FC00440044061
:102B400003800000000003800440044006400000B1
:102B500000000380044024403FC000400000038088
:102B60000540054003400000000004401FC0244011
:102B700024402000000002E00550055006500420CB
:102B800020403FC00440040003C000400000044057
:102B900027C000400000000000100010041027E0D3
:102BA0000000000020403FC00140070004C0044076
:102BB000204020403FC000400040000007C004000B
:102BC00007C0040003C00000044007C00440040024
:102BD00003C0004000000380044004400380000064
:102BE000041007F00450044003800000000003803C
:102BF0000440045007F00010044007C002400400E5
:102C000004000000000006400540054004C000002C
:102C1000000004001F800440004000000400078002
:102C20000040044007C000400400070004C00180C9
:102C300006000400060001C0070001C006000000F5
:102C4000044006C0010006C0044000000410071044
:102C500004E00180060004000000044005C00640B6
:102C6000044000000000000004007BE04020000061
:102C7000000000000000FFF0000000000000402005
:102C80007BE00400000000004000800040002000C5
:102C900020004000000000000000000000000000D4
:102CA000000000000000000000001FCC000C00002D
:102CB0000000000000000800300060000800300044
:102CC00060000000022003FC1E20022003FC1E20E6
:102CD0000220000000000E1811043FFF10840C7841
:102CE000000000000F0010840F3800C0077818841F
:102CF0000078000000780F8410C411240E9800E4BE
:102D00000084000808006800700000000000000057
:102D10000000000000000000000007E01818200478
:102D200040020000000040022004181807E00000E4
:102D3000000000000240024001800FF001800240CC
:102D4000024000000080008000800FF800800080BA
:102D5000008000000001000D000E000000000000D7
:102D600000000000000000800080008000800080E3
:102D7000008000800000000C000C0000000000003B
:102D8000000000000000000600180060018006003E
:102D900018002000000007F00808100410040808BC
:102DA00007F000000000080408041FFC00040004F1
:102DB0000000000000000E0C1014102410441184B8
:102DC0000E0C000000000C181004110411041288ED
:102DD0000C700000000000E00320042408241FFC05
:102DE0000024000000001F981084110411041088B2
:102DF00010700000000007F0088811041104188802
:102E00000070000000001C00100010FC13001C00EB
:102E10001000000000000E3811441084108411448A
:102E20000E38000000000700088C10441044088889
:102E300007F00000000000000000030C030C00007D
:102E4000000000000000000000010106000000007A
:102E5000000000000000008001400220041008086B
:102E60001004000002200220022002200220022082
:102E70000220000000001004080804100220014095
:102E80000080000000000E001200100C106C10807A
:102E90000F00000003E00C1813E4142417C40828E2
:102EA00007D000000004003C03C41C40074000E4BD
:102EB000001C000410041FFC1104110411040E88EE
:102EC0000070000003E00C18100410041004100837
:102ED0001C10000010041FFC10041004100408084B
:102EE00007F0000010041FFC1104110417C41004A3
:102EF0000818000010041FFC1104110017C0100076
:102F00000800000003E00C181004100410441C78A2
:102F10000040000010041FFC10840080008010841A
:102F20001FFC10040000100410041FFC1004100407
:102F30000000000000030001100110011FFE10003E
:102F40001000000010041FFC110403801464181CFE
:102F50001004000010041FFC10040004000400040E
:102F6000000C000010041FFC1F0000FC1F001FFCD1
:102F70001004000010041FFC0C04030000E01018F3
:102F80001FFC100007F008081004100410040808C3
:102F900007F0000010041FFC1084108010801080C7
:102FA0000F00000007F0081810241024101C080A55
:102FB00007F2000010041FFC1104110011C01130B1
:102FC0000E0C000400000E1C110410841084104428
:102FD0001C3800001800100010041FFC1004100022
:102FE0001800000010001FF8100400040004100472
:102FF0001FF8100010001E0011E0001C007013806C
:103000001C0010001FC0103C00E01F0000E0103C3E
:103010001FC000001004180C163401C001C0163483
:10302000180C100410001C00130400FC13041C00F6
:10303000100000000804101C1064108413041C0409
:10304000101800000000000000007FFE4002400257
:1030500040020000000030000C0003800060001CF3
:103060000003000000004002400240027FFE00001A
:103070000000000000000000200040004000400070
:10308000200000000001000100010001000100011A
:10309000000100010000400040002000000000008E
:1030A0000000000000000098012401440144014494
:1030B00000FC000410001FFC0088010401040088CB
:1030C0000070000000000070008801040104010489
:1030D000008800000000007000880104010411084D
:1030E0001FFC0004000000F80144014401440144B5
:1030F00000C800000000010401040FFC11041104C9
:1031000011001800000000D601290129012901C978
:103110000106000010041FFC0084010001000104EE
:1031200000FC000400000104190419FC0004000460
:10313000000000000000000300010101190119FE58
:103140000000000010041FFC0024004001B4010C2A
:10315000010400000000100410041FFC000400041F
:1031600000000000010401FC0104010001FC010455
:10317000010000FC010401FC0084010001000104C5
:1031800000FC0004000000F8010401040104010433
:1031900000F80000010101FF00850104010400881E
:1031A00000700000000000700088010401040105A7
:1031B00001FF00010104010401FC0084010401007D
:1031C00001800000000000CC01240124012401241E
:1031D0000198000000000100010007F8010401044B
:1031E00000000000010001F80004000400040108D0
:1031F00001FC0004010001800170000C001001605E
:103200000180010001F0010C003001C00030010C10
:1032100001F0010000000104018C00740170018CB8
:1032200001040000010101810171000E001801601C
:103230000180010000000184010C0134014401847B
:10324000010C0000000000000000000001003EFC36
:10325000400240020000000000000000FFFF0000EC
:10326000000000000000400240023EFC010000009F
:10327000000000000000600080008000400040006E
:1032800020002000000000000000000000000000FE
:10329000000000000000000000000000000000002E
:1032A000000000000000000000000000000000001E
:1032B000000000000000000F80380FFE380F80383B
:1032C00000000000000000000000000000000000FE
:1032D00000000100000600000C0000380000310072
:1032E000000600000C000038000030000000000064
:1032F0000000000061800067F807F980006180002D
:1033000061800061800061800067F807F9800061DA
:103310008000000000000000000001C0E003E0F0B9
:103320000630080418081FFFFE040E080787F00384
:1033300081E000000000000001F000060C00040421
:1033400008060C7001F9C0000E00003BE000EC180C
:10335000070808040C180003E00000000001E0006A
:1033600007F003F818041C0804170807E1D003C08D
:10337000E00023B0003C080020080000100000001E
:103380000000000100003100003200001C000000BD
:10339000000000000000000000000000000000002D
:1033A000000000000000000000000000000000001D
:1033B000000000007F0001FFC00780F00C00181023
:1033C00000042000020000000000002000021000A5
:1033D000040C00180780F001FFC0007F000000000F
:1033E00000000000000000000000000000000000DD
:1033F0004200006600006600003C0000180003FF69
:10340000C0001800003C000066000066000042009A
:10341000000000000800000800000800000800008C
:10342000080001FFC00008000008000008000008B4
:103430000000080000000000000100003100003220
:1034400000001C0000000000000000000000000060
:10345000000000000000000000000000080000085C
:103460000000080000080000080000080000080034
:103470000008000008000008000000000000000034
:103480000000000038000038000038000000000094
:10349000000000000000000000000000000000002C
:1034A00000000000000600001C0000700001800009
:1034B0000E0000380000C0000700001C00003000B3
:1034C00000000000000000007F8001FFE00380702A
:1034D00006001804000804000806001803807001A4
:1034E000FFE0007F800000000000000000000100FD
:1034F0000801000801000803FFF807FFF8000008B2
:1035000000000800000800000000000000000001AA
:10351000C03802C0580400980401180402180404BA
:1035200018061C1803F81801E0F80000000000005D
:1035300000000001C0E003C0F00400080408080413
:10354000080806180803F41801E7F00001E000007D
:1035500000000000000000000300000D000011004A
:1035600000610000810803010807FFF80FFFF80061
:1035700001080001080000000000000000E007FC56
:10358000D0060808061008061008061008061838A5
:10359000060FF00607C00000000000000000000059
:1035A0003F8001FFE0038430020818041008041073
:1035B00008041008071810030FF00007C0000000EF
:1035C00000000000000003C0000700000600000625
:1035D00000F80607F806180006E0000700000600DD
:1035E0000000000000000001E1E003F7F0063410E5
:1035F000041808041808040C08040C08061618031C
:10360000F3F001C1E000000000000000F80003FC3E
:1036100030030638040208040208040208040410F7
:103620000308F001FFC0007F000000000000000060
:103630000000000000000000000000007038007072
:10364000380070380000000000000000000000009A
:10365000000000000000000000000000000000006A
:10366000301A00301C0000000000000000000000C4
:10367000000000000000000000000008000014002E
:103680000022000041000080800100400200200470
:1036900000100800080000000000000021000021C8
:1036A0000000210000210000210000210000210075
:1036B00000210000210000210000000000000000A7
:1036C00000000800080400100200200100400080F3
:1036D00080004100002200001400000800000000EB
:1036E00000000003C00004C0000400000800380807
:1036F0000F380808380810000C300007E00003C03D
:1037000000000000000000003F8000FFE003807028
:10371000020F1006708804C088048308047F8802A2
:10372000C09003012000FE400000080000180001C6
:10373000F8003E0801C20007020007E20000FE0098
:10374000001FC80001F80000380000080400080746
:10375000FFF807FFF804080804080804080804082C
:103760000806180803F41801E7F00001E000000063
:10377000000000003F8001FFE00380700200180499
:103780000008040008040008040010060020078058
:10379000C000000004000807FFF807FFF804000855
:1037A00004000804000804001802001003807001DF
:1037B000FFE0007F8000000004000807FFF807FF1B
:1037C000F8040808040808040808040808043E0867
:1037D000040008060018010060000000040008074B
:1037E000FFF807FFF80408080408000408000408AC
:1037F00000043E00060000060000018000000000FA
:10380000000000003F8001FFE00380700600180404
:1038100000080402080402080203F00783F0000213
:103820000000020004000807FFF807FFF80408087A
:10383000000800000800000800000800040808074D
:10384000FFF807FFF8040008000000000000040073
:103850000804000804000807FFF807FFF804000840
:103860000400080400080000000000000000000040
:10387000000600000700000104000104000104002C
:103880000307FFFE07FFFC04000004000004000023
:1038900004000807FFF807FFF8040C0800180000F0
:1038A0003E0004C7800503C80600F8040038040081
:1038B0001800000804000807FFF807FFF8040008D4
:1038C00000000800000800000800000800000800D0
:1038D000001800006000000004000807FFF80780DF
:1038E0000807FC00007FC00003F80007C000780054
:1038F00007800807FFF807FFF8040008040008071E
:10390000FFF807000803C00000E000003800001EB8
:10391000000007000001C00400F007FFF8040000E9
:10392000000000007F8001FFE003807006001804A3
:10393000000804000806001803003001FFE0007FC3
:103940008000000004000807FFF807FFF8040408DF
:10395000040400040400040400040400060C000332
:10396000F80001F000000000000000007F8001FF6F
:10397000E00380700600880400880400C806003C4C
:1039800003003E01FFE6007F8400000004000807FA
:10399000FFF807FFF8040808040800040C00040FEF
:1039A00000040BC00610F003F03801E00800000826
:1039B00000000001E0F803F030063010041808049D
:1039C0001808040C08040C080206180207F0078106
:1039D000E000000001800006000004000004000078
:1039E00004000807FFF807FFF804000804000004BB
:1039F000000006000001800004000007FFE007FF50
:103A0000F00400180000080000080000080000088A
:103A100000000804001007FFE00400000400000696
:103A2000000007E00007FE00041FE00001F80000AE
:103A3000380001E0043E0007C0000600000400005A
:103A400004000007E00007FFC0041FF80007C007DC
:103A5000F80007FF80043FF80007C004F8000700E3
:103A60000004000000000004000806001807C078E9
:103A700005F1C8003E00001F800463E80780F806D7
:103A80000018040008000000040000060000078081
:103A90000007E008047C08001FF80007F800180879
:103AA00004E0080700000600000400000000000118
:103AB00000080600380400F80403E8040F08047C3A
:103AC0000805F00807C0080700180400600000009F
:103AD0000000000000000000000000000000003FA7
:103AE000FFFE200002200002200002200002200031
:103AF00002000000000000000000080000070000B5
:103B000000C0000038000006000001C000003000C6
:103B1000000E000001000000000000000000200076
:103B2000022000022000022000022000023FFFFECF
:103B30000000000000000000000000000000000085
:103B4000000000000008000010000030000020000D
:103B5000003000001000000800000000000000001D
:103B60000000010000010000010000010000010050
:103B70000001000001000001000001000001000040
:103B80000100000100000000000000000020000013
:103B900020000010000010000000000000000000E5
:103BA00000000000000000000000000000F000190C
:103BB000F8001B1800220800260800240800241022
:103BC000003FF8001FF80000080000180000000483
:103BD000000007FFF80FFFF0001818001008002081
:103BE00008002008003018001FF0000FC00000007F
:103BF0000000000007C0001FF0001830002008007F
:103C00002008002008003C08001C10000060000094
:103C1000000000000000000007C0001FF00038187E
:103C200000200800200800200804101007FFF80FEB
:103C3000FFF000001000000000000000000000077E
:103C4000C0001FF0001230002218002208002208D5
:103C5000003208001E10000E2000000000000000CE
:103C6000200000200800200801FFF803FFF80620CC
:103C700008042008042008072000030000000000BA
:103C800000000000000E000E6E001FF30031B100B6
:103C900020B10020B1003191001F13002E1E002022
:103CA0000E00300000000004000807FFF80FFFF8C6
:103CB000001008002000002000002008003FF8004D
:103CC0001FF80000080000000000000000000020B5
:103CD00008002008002008063FF8063FF80000080A
:103CE00000000800000800000000000000000000C4
:103CF000000000000300000300200100200100205C
:103D000003063FFE063FFC0000000000000000002C
:103D100000000004000807FFF80FFFF8000188000A
:103D20000300002FC00038F80020380020080000F1
:103D30000800000000000000000004000804000863
:103D400004000807FFF80FFFF80000080000080053
:103D50000008000000000000002008003FF8003FBD
:103D6000F8001008002000003FF8003FF80010089D
:103D7000002000003FF8003FF800000800000000AD
:103D80002008003FF8003FF8001008001000002055
:103D900000002008003FF8001FF8000008000000A5
:103DA0000000000007C0000FF000183000300800CD
:103DB0002008002008003008001830000FF000072D
:103DC000C0000000000000002001003FFF003FFF96
:103DD00000101100200900200800200800303800E1
:103DE0001FF0000FC00000000000000007C0001F0F
:103DF000F0003818002008002008002009001011E9
:103E0000001FFF003FFF000001000000002008002D
:103E10002008002008003FF8003FF80008080010C4
:103E200008002008002000003000003000000000E2
:103E3000000000000000000C78001E18003308008D
:103E400023080021080021880021980030F0003864
:103E500060000000000000002000002000002000A2
:103E600000FFF003FFF800200800200800200800F1
:103E70000030000000000000000000002000003FB3
:103E8000F0007FF800001800000800000800201073
:103E9000003FF8007FF0000010000000000000006C
:103EA0002000003000003C00003F800023F00000B4
:103EB00078000070002380003C00003000002000EB
:103EC000002000003C00003FE00023F80000E0007C
:103ED0002700003E00003FE00021F80001E0003E26
:103EE00000002000000000002008002008003838F2
:103EF000003E680027800003C8002CF80038380016
:103F00002018002008000000000000002000003001
:103F100003003C01003F830023EC0000700023807D
:103F2000003C000020000020000000000000000015
:103F300000000038080020380020F80023E8002F97
:103F400088003E08003808002018000070000000BB
:103F50000000000000000000000000000000000061
:103F600008000014001FF7FC3000062000020000CB
:103F70000000000000000000000000000000000041
:103F8000000000000000FFFFFF0000000000000034
:103F90000000000000000000000000000000200001
:103FA000023000061FF7FC001400000800000000AB
:103FB00000000000000000000000000000000018E9
:103FC00000006000004000004000002000001000E1
:103FD000000800000400000400000C0000100000B5
:103FE00020082410226021802641393202040C1856
:103FF000F060138010601018140418020001000013
:1040000002000202420433F8000400023FF22022C0
:10401000404200023FFE204220223FC20002000038
:10402000000000088008800880048004F81F000059
:10403000C0073C198010401060100010001C0000E8
:1040400000000000200010105018D0015002524211
:10405000543FD0017005080808180800000000004F
:10406000000000000010F00F440048074001F01F5E
:104070004801C804A8070420FC6F003000000000BD
:1040800000000001800060029E3EA413500940021F
:10409000C0014002FCFF20012001E00020000000E0
:1040A0000000800080008430CC1F08080000C0227F
:1040B00038250819BC1E4421406000400040000023
:1040C0000000000000207010200EA00AA0089C1F15
:1040D00090225022506230601040004000000000EA
:1040E0000000000000000030481A68036803D8C2CE
:1040F0004C3E24023609001B0010000000000000A6
:1041000000000000C010A0139C0A402A2014200ABE
:10411000A00564032C1F9020102100200030000017
:1041200000000000F01F10091009F01F40004001BE
:1041300040024020FC63441C40004000000000009E
:1041400000000001C000A03F1C009010D014B00F70
:10415000480AC80A0000E0030020FC7F00000000BD
:104160000000000080004018C40F0404800080009C
:1041700080008200FC7F4000400040000000000002
:1041800000008000801E80027012923F7C0548056E
:10419000001CF0039000883F4400400040000000F5
:1041A0000000000400029007700590038820A01E04
:1041B00090014806D41F28055844C87F000000001D
:1041C000000080008000443FCC0808240010000C50
:1041D000C4033803000400180010001000000000A1
:1041E0000000801080108813980C00100010F82F29
:1041F000A82954257C258C2240260024002000007C
:10420000000000000000E03D202100210021FE1FF1
:104210008410801080108031601C000000000000BD
:104220000000000180004020BC1F08008020A02763
:10423000A01AFC0F50115021D021002000000000D6
:104240000000000000400030F80F08024802C81FBC
:104250007802080104000C20F87F00000000000034
:10426000543A0000844200080000002020000000B2
:10427000681C0008A442000820000020C8080000B4
:10428000781C0008000000000000803F00010000D2
:104290000000AA4300000000000000000000000031
:0442A000000000001A
:04000005080000ED02
:00000001FF
